:020000040800F2
:1000000030F900205D020008DD420008BF3800081A
:10001000D5400008D10400080D4F00080000000082
:10002000000000000000000000000000A101000826
:100030008B05000800000000F50100085B46000881
:1000400077020008770200087702000877020008AC
:10005000770200087702000877020008770200089C
:10006000770200087702000877020008D50400082C
:100070001905000825050008310500083D050008A0
:1000800049050008550500087702000877020008B6
:10009000770200087702000877020008770200085C
:1000A0007702000869470008770200087702000815
:1000B000770200080000000000000000770200083E
:1000C000770200087702000877020008770200082C
:1000D00077020008F94D0008554E0008B14E00089F
:1000E000770200087702000800000000000000000E
:1000F0000000000000000000000000000000000000
:1001000000000000770200080000000077020008ED
:10011000000000000000000075470008914700083B
:1001200077020008770200087702000877020008CB
:10013000770200080000000000000000000000003E
:1001400077020008770200087702000877020008AB
:10015000770200087702000877020008770200089B
:10016000770200087702000877020008000000000C
:1001700077020008770200087702000800000000FC
:10018000770200087702000877020008DFF80CD039
:1001900000F0EEF8004800473551000830F9002023
:1001A0002B4B19680868B0E8F04F80F30988BFF35B
:1001B0006F8F4FF0000080F311887047000000003F
:1001C00006480068006880F3088862B661B6BFF32D
:1001D0004F8FBFF36F8F00DF00BF00BF08ED00E05F
:1001E000DFF80C00016841F470010160704700BF46
:1001F00088ED00E0EFF30980BFF36F8F144B1A68AE
:100200001EF0100F08BF20ED108A20E9F04F10609B
:1002100008B44FF0500080F31188BFF34F8FBFF345
:100220006F8F05F0C9FE4FF0000080F3118808BC05
:1002300019680868B0E8F04F1EF0100F08BFB0EC66
:10024000108A80F30988BFF36F8F704700BF00BF2B
:1002500024000020EFF30580704700000648804727
:1002600006480047FEE7FEE7FEE7FEE7FEE7FEE79B
:10027000FEE7FEE7FEE7FEE7254700088D010008E0
:100280002DE9F05F0546002092469B4688460646CB
:10029000814640241BE0284641464746224600F05E
:1002A00057F853465A46C01A914110D31146184682
:1002B000224600F03EF82D1A67EB01084F46224611
:1002C0000120002100F035F817EB00094E41201EF7
:1002D000A4F10104DFDC484631462A464346BDE826
:1002E000F09F40EA01039B0703D009E008C9121FF1
:1002F00008C0042AFAD203E011F8013B00F8013BE0
:10030000521EF9D2704730B50B460146002020221C
:10031000012409E021FA02F59D4205D303FA02F512
:10032000491B04FA02F52844151EA2F10102F1DC72
:1003300030BD202A04DB203A00FA02F10020704789
:100340009140C2F1200320FA03F319439040704713
:10035000202A04DB203A21FA02F00021704721FA1A
:1003600002F3D040C2F12002914008431946704781
:10037000064C074D06E0E06840F0010394E80700F2
:1003800098471034AC42F6D3FFF704FFF47F00081F
:100390001480000870B58C1810F8015B15F0070385
:1003A00001D110F8013B2A1106D110F8012B03E00E
:1003B00010F8016B01F8016B5B1EF9D12B0705D416
:1003C0000023521E0DD401F8013BFAE710F8013B5F
:1003D000CB1A921C03E013F8015B01F8015B521E7B
:1003E000F9D5A142D8D3002070BD10B5806A816DC7
:1003F00011F0500F816D04D0C90601D500F054FFF3
:1004000010BD41F40071816501680A68120715D5B5
:10041000CA6812F4406F0ED1C968890400290ADB4A
:10042000816D21F480718165816DC90403D4816D72
:1004300041F00101816500F035FF10BDC9688907F1
:10044000ECE710B5806A816D41F040018165C16DB6
:1004500041F00401C16500F027FF10BD10B5806AAE
:1004600000F021FF10BD000070B5044600688168EF
:1004700001F00301012902D10168C90723D1816874
:10048000124A114210D1816841F00101816001F0EE
:10049000C1FC054612E0816841F00101816001F074
:1004A000B9FC401B022809D9A06D40F01000A065DE
:1004B000E06D40F00100E065012070BD206801683A
:1004C000C943C907E7D1002070BD00003F0000808C
:1004D000FEE7000010B50C4801F0E5F90B48006894
:1004E00000280FD00A4C00212160214606F004F8B4
:1004F0002068012806D1074900070860BFF34F8F25
:10050000BFF36F8F10BD000024F30020B401002062
:100510009000002004ED00E0014801F0C4B90000A3
:10052000C0F10020014801F0BEB9000078F10020C0
:10053000014801F0B8B90000A0F00020014801F026
:10054000B2B9000058F00020014801F0ACB9000039
:10055000E8F00020014801F0A6B9000030F10020C9
:1005600030B590F844500124AC40056C6C600468D0
:1005700063608368102B036803D099600068C260D1
:1005800030BD9A600068C16030BD704790B00122F4
:1005900011035F4801F038FC05F0ECF95D4FDFF81E
:1005A00078815E4D5E4C07F18006B87D012829D127
:1005B000002005F0CDF90021084605F065FAD5E9DF
:1005C0000012012357A005F017FB0F21002005F0B2
:1005D0005BFAD4E90012012354A005F00DFB0F21B2
:1005E0001E2005F051FA52A240216846D8F800308A
:1005F00004F08EFCD4E900120123684605F0FCFAF1
:1006000005F048FAB87D88BBB06F78BB002005F0D4
:100610009FF90021084605F037FAD5E900120123B9
:1006200044A005F0E9FAD4E90012012343A005F043
:10063000E3FA0F21002005F027FAD5E90012012383
:100640003FA005F0D9FA0F211E2005F01DFA38A2AF
:1006500040216846D8F8003004F05AFCD4E9001272
:100660000123684605F0C8FA05F014FAB06F0128B6
:1006700018D1002005F06CF90021084605F004FAB5
:10068000D4E9001201232FA005F0B6FA0F210020B3
:1006900005F0FAF9D5E9001201232CA005F0ACFA17
:1006A00005F0F8F9B06F02282ED1002005F050F9BE
:1006B0000021084605F0E8F9D5E90012012325A03C
:1006C00005F09AFAD4E9001201231CA005F094FA6F
:1006D0000F21002005F0D8F9D5E9001201231FA051
:1006E00005F08AFA1E21002005F0CEF9D5E90012A6
:1006F00001231CA005F080FAD4E9001201231AA0FE
:1007000005F07AFA05F0C6F9642004F0A9FD4CE77B
:1007100000040048A0000020740000203C040020D9
:1007200044040020CEF8E8E1EAE000004352430030
:1007300025640000C7E0E3F0F3E700002D000000AF
:10074000F7E8EA00464C415348000000EEF7E8F9AC
:10075000E5EDE000CEE1EDEEE2000000EBE5EDE8D6
:10076000E5000000CFCE00002E2E2E0014490A7F97
:100770001448012A02D00A7F032A0BD1026842F4EE
:1007800000620260026822F400620260026842F4C1
:10079000007202600A7F022A02D00A7F032A0BD16C
:1007A000026842F480520260026822F480520260C1
:1007B000026842F4806202600020087770470000FF
:1007C00010F5002000200240C107054803D0416910
:1007D00041F004014161416941F480314161704758
:1007E000002002400A494A694FF4FF6393FAA3F3D9
:1007F000B3FA83F322F4FF62984002434A614869E6
:1008000040F002004861486940F480304861704718
:1008100000200240044910B54C6944F001044C61C9
:100820000260436010BD000000200240074B10B57D
:100830005C69402244F480245C6172B608C908C037
:10084000521E12F0FF02F9D162B610BD0020024024
:1008500035490869C0438207344803D4426842F0EE
:10086000010242600A69D243120703D4426842F08F
:10087000020242600A69D243D20603D4426842F0BF
:10088000040242600A69D243920603D4426842F0ED
:10089000080242600A69D243520603D4426842F019
:1008A000100242600A69D243120603D4426842F041
:1008B000200242600A69D243D20503D4426842F062
:1008C000400242600A69D243920503D4426842F072
:1008D000800242600A69D243520403D4426842F45F
:1008E000807242600A69D243120403D4426842F41F
:1008F000007242608A69D24303D4426842F4806243
:1009000042600A69D243920306D4426842F400620C
:1009100042604FF400300861886940F0004088610F
:100920004CF2FA30086170470020024010F50020B8
:1009300070B5054601F06EFA0646254C08E0681CC5
:1009400006D001F067FA801BA84201D3032070BDD6
:100950002069C043C003F2D52069C04380072AD56F
:100960002069C043000726D52069C043C00622D5B0
:100970002069C04380061ED52069C04340061AD5B1
:100980002069C043000616D52069C043C00512D5B2
:100990002069C04380050ED52069C04340040AD5B4
:1009A0002069C043000406D5A069C04303D520696F
:1009B000C043800303D4FFF74BFF012070BD2069C3
:1009C000C043C00701D101202061002070BD00009C
:1009D0000020024010B5044605F03EFE014614B169
:1009E00004F0A2FB2060C86C10BD0068816811F0A3
:1009F0000C0F01D001207047C16841F00041C16077
:100A0000002070472DE9F047002590F85430066922
:100A10002A46012B0FD04FF00109FA4C80F8549070
:100A20004FF4F8534FF0000A46B18E69012E05D0FD
:100A3000476E0FB32EE00220BDE8F0874A68012A16
:100A40004DD18A6A012A0AD0CE6A46B1324393FA5E
:100A5000A3F30E68B3FA83F39E40324305E093FAA2
:100A6000A3F30A68B3FA83F39A400368DE6C264066
:100A70001643DE64026632E0C0E918A68A6A012ADB
:100A800006D0CE6A26B132438E69761E324301E02B
:100A90008A69521E93FAA3F6B6FA86F60F79B61E45
:100AA0007E434FF01F0CB61C0CFA06FC93FAA3F31E
:100AB000B3FA83F39B1E7B430E689B1C22EA0C0255
:100AC0009E401643426E521E4266036E43EA060380
:100AD000036604D10268D66C26401E43D6640268C1
:100AE00093681B070ED40B6A4FF40014A3B1D368AC
:100AF00094FAA4F44E6AB4FA84F423F44013A640A2
:100B00003343D36003689A684FF0070412F00C0F68
:100B10004FF0380214D0D1E094FAA4F44B6AB4FA3E
:100B200084F4A3404FF4801696FAA6F6CC69B6FA80
:100B300086F6B4402343D46824F440142343E0E70A
:100B40008E6A012E05D0CE6A1EB10E6A012E31D0FA
:100B500002E00E6A012E03D0DE6826F0007602E085
:100B6000DE6846F00076DE600B6B012B28D0036850
:100B70001E6926F002061E610B6806680A2B2AD33E
:100B8000B76992FAA2FCBCFA8CFC0A3B03FB0CFC92
:100B900004FA0CFC27EA0C0792FAA2F8B8FA88F8D3
:100BA000D1F808C003FB08F30CFA03FC47EA0C0772
:100BB000B76128E0836D43F0200383650125D3E707
:100BC000D1E90D631E4303681F6927F4FF7747F0DF
:100BD00002073E43CFE7776992FAA2FCBCFA8CFC8D
:100BE00003FB0CFC04FA0CFC27EA0C0792FAA2F8AF
:100BF000B8FA88F8D1F808C003FB08F30CFA03FC34
:100C000047EA0C07776103684F69DE68D1F8108006
:100C1000C6F3C1067600B740DFF8ECC14FF0F846E6
:100C2000B8F1010F51D0B8F1020F62D0B8F1030F43
:100C300075D0B8F1040F71D01F6E96FAA6F807F0C0
:100C4000F84C0F68B8FA88F807FA08F7BC4503D1E2
:100C50001F6E27F000471F6603685F6E96FAA6F8BE
:100C600007F0F84C0F68B8FA88F807FA08F7BC459F
:100C700003D15F6E27F000475F6603689F6E96FAA8
:100C8000A6F807F0F84C0F68B8FA88F807FA08F7E2
:100C9000BC4503D19F6E27F000479F660368DF6E57
:100CA00096FAA6F607F0F84C0F68B6FA86F6B74043
:100CB000BC4503D1DE6E26F00046DE6603689E6802
:100CC00006F00306012E54D150E0D3F8608096FA66
:100CD000A6F608EA0C08D1F800C0B6FA86F60CFAB7
:100CE00006FC4CEA070C48EA0C0848F000461E6671
:100CF000E4E7D3F8648096FAA6F608EA0C08D1F87F
:100D000000C0B6FA86F60CFA06FC4CEA070C48EA74
:100D10000C0848F000465E66D0E700E013E0D3F828
:100D2000688096FAA6F608EA0C08D1F800C0B6FA70
:100D300086F60CFA06FC4CEA070C48EA0C0848F068
:100D400000469E66BAE7D3F86C8096FAA6F608EAE3
:100D50000C08D1F800C0B6FA86F60CFA06FC4CEA8C
:100D6000070C48EA0C0848F00046A6E71E68F6079C
:100D700066D1CE68B6F1804F07D053F8B04F0E78E9
:100D800009FA06F294431C6034E053F8B07F91F8FE
:100D900000C009FA0CF637431F600B680668092B80
:100DA00014D3B76992FAA2FCBCFA8CFC093B03FB92
:100DB0000CFC04FA0CF4A74392FAA2F2B2FA82F203
:100DC0008C6853439C402743B76113E0776992FADC
:100DD000A2FCBCFA8CFC5B1C03FB0CFC04FA0CF4BC
:100DE000A74392FAA2F2B2FA82F28C6853439C4073
:100DF000274377610968054A112909D012290AD0C9
:100E000061B11DE00020088200F0FF0300030450E0
:100E100093681B0204E09368DB0101E093685B02C6
:100E2000002B0DDB03689C6804F00304012C0BD13C
:100E30001C68E40708D0816D41F02001816501251F
:100E400080F854A02846F7E5134C11290AD012293E
:100E50001BD00029F4D1A342F2D1916841F4800162
:100E60009160EDE7A342EBD1916841F400019160FC
:100E70000A490B4A0968B1FBF2F1C1EB0111C90043
:100E800000E0491E0029FCD1DAE7A342D8D19168DD
:100E900041F08071E4E70000000004505404002099
:100EA00040420F002DE9F8470026009690F85420A4
:100EB000B246012A21D04FF0010980F8549004680D
:100EC000A26852077DD44A681F254FF4F863052AAB
:100ED00016D2276B93FAA3FCBCFA8CFC02FB0CFC29
:100EE00005FA0CF5AF4393FAA3F3B3FA83F30D6855
:100EF0005A4395402F43276344E00220BDE8F8871A
:100F00000A2A14D2676B93FAA3FCBCFA8CFC521F1A
:100F100002FB0CFC05FA0CF5AF4393FAA3F3B3FA0A
:100F200083F30D685A4395402F4367632AE00F2AE5
:100F300014D2A76B93FAA3FCBCFA8CFC0A3A02FB0E
:100F40000CFC05FA0CF5AF4393FAA3F3B3FA83F361
:100F50000D685A4395402F43A76313E0E76B93FA5C
:100F6000A3FCBCFA8CFC0F3A02FB0CFC05FA0CF556
:100F7000AF4393FAA3F3B3FA83F30D685A43954052
:100F80002F43E7630568AA684FF0070412F00C0FBF
:100F90004FF038027ED10B680A2B1BD3AF6992FA4F
:100FA000A2FCBCFA8CFC0A3B03FB0CFC92FAA2F8F4
:100FB00004FA0CFCB8FA88F827EA0C0703FB08F3DC
:100FC00000E033E1D1F808C00CFA03FC47EA0C0753
:100FD000AF6117E06F6992FAA2FCBCFA8CFC03FBCC
:100FE0000CFC04FA0CFC27EA0C0792FAA2F8B8FAF7
:100FF00088F8D1F808C003FB08F30CFA03FC47EAB1
:101000000C076F6103684F69DD68D1F81080C5F384
:10101000C1056D00AF40DFF878C24FF0F845B8F178
:10102000010F53D0B8F1020F64D0B8F1030F77D09D
:10103000B8F1040F73D01F6E95FAA5F807F0F84CBD
:101040000F68B8FA88F807FA08F7BC4503D11F6E95
:1010500027F000471F6603685F6E95FAA5F807F052
:10106000F84C0F68B8FA88F807FA08F7BC4503D1BE
:101070005F6E27F000475F6603689F6E95FAA5F8DC
:1010800007F0F84C0F68B8FA88F807FA08F7BC457B
:1010900005D100E013E09F6E27F000479F660368CC
:1010A000DF6E95FAA5F507F0F84C0F68B5FA85F5EF
:1010B000AF40BC4503D1DD6E25F00045DD66036819
:1010C0009D6805F00305012D54D150E0D3F86080F0
:1010D00095FAA5F508EA0C08D1F800C0B5FA85F52F
:1010E0000CFA05FC4CEA070C48EA0C0848F00045ED
:1010F0001D66E4E7D3F8648095FAA5F508EA0C08C4
:10110000D1F800C0B5FA85F50CFA05FC4CEA070CDD
:1011100048EA0C0848F000455D66D0E700E013E0BF
:10112000D3F8688095FAA5F508EA0C08D1F800C054
:10113000B5FA85F50CFA05FC4CEA070C48EA0C08F0
:1011400048F000459D66BAE7D3F86C8095FAA5F59E
:1011500008EA0C08D1F800C0B5FA85F50CFA05FCD0
:101160004CEA070C48EA0C0848F00045A6E71D6861
:10117000ED0760D1CD68B5F1804F07D053F8B04F7F
:101180000D7809FA05F294431C6034E053F8B07FFF
:1011900091F800C009FA0CF52F431F600B68056831
:1011A000092B14D3AF6992FAA2FCBCFA8CFC093B60
:1011B00003FB0CFC04FA0CF4A74392FAA2F2B2FA75
:1011C00082F28C6853439C402743AF6113E06F6900
:1011D00092FAA2FCBCFA8CFC5B1C03FB0CFC04FA2C
:1011E0000CF4A74392FAA2F2B2FA82F28C6853434B
:1011F0009C4027436F610968264A112903D01229B0
:1012000004D031B117E093681B0204E09368DB015E
:1012100001E093685B02002B0DDB03689C6804F01F
:101220000304012C0BD11C68E40708D0816D41F048
:1012300020018165012680F854A030465EE6164CF8
:1012400011290AD012291CD00029F4D1A342F2D1CD
:10125000916841F480019160EDE7A342EBD1916880
:1012600041F4000191600D490D4A0968B1FBF2F1AA
:10127000C1EB0111C90000E0491E00910029FBD11A
:10128000D9E7A342D7D1916841F08071E3E700002C
:1012900000F0FF0300030450000004505404002039
:1012A00080841E007047704770470000F8B54FF00B
:1012B000000504002E46009502D0A06D10B107E095
:1012C0000120F8BD204600F0CFF8E66584F85460B0
:1012D00020688168890003D5816821F00051816010
:1012E00020688168C90010D4816841F08051816014
:1012F00059485A490068B0FBF1F000EB800040000B
:1013000000E0401E00900028FBD120688168C900E1
:1013100008D4A16D41F01001A165E16D41F001011A
:10132000E1650125A16DC90671D4816849076ED4B4
:10133000A16D41F00201A1654949826802F00302F2
:10134000012A02D10068C00705D18868626820F4CC
:101350007C1010438860E168A06B4FF40053084391
:1013600093FAA3F3E269B3FA83F3A1689A401143B5
:1013700008434FF4803292FAA2F2616AB2FA82F222
:1013800001FA02F21043012909D14FF46022A16A47
:1013900092FAA2F2B2FA82F2491E91400843E16A3F
:1013A000012903D0226B0AB1114308432268D16896
:1013B0002C4B19400143D1602168886810F00C0F54
:1013C0001DD14FF4804292FAA2F2A069B2FA82F2E1
:1013D0009040022393FAA3F3626BB3FA83F39A402B
:1013E0001043CA6844F202039A430243CA60E06BA6
:1013F00001280DD02068016921F0010101612069F7
:1014000001282068016B21F00F0112D014E01BE0CD
:10141000D4E910010843D4E91212114308432168AA
:101420000A6940F2FD739A43104340F001000861DD
:10143000E5E7226A521E11430163A06D20F002000D
:1014400040F00100A06504E0A06D40F01000A06530
:1014500001252846F8BD00005404002080841E00A9
:101460000003045007C0F0FF70B5064600681C4931
:1014700086B0884232D11B48C16C41F40051C1642E
:10148000C06C0B2400F400500590C02000258DE8AE
:10149000310069464FF0904000F0F2FB01208DE8EA
:1014A00031006946104800F0EBFB114C0F48C4E9CD
:1014B00000058020A560C4E9035040006061800001
:1014C000A0612020C4E90705204600F041FA18B1C8
:1014D000B42108A003F01BFD3465A66206B070BD00
:1014E00000000450001002400004004808000240C0
:1014F00024F300202E2E2F5372632F6164632E631A
:10150000000000002DE9F0410446006817468846B7
:10151000806840074CD494F8540001280CD0012076
:1015200084F854002046FEF79FFF05004FF00006A8
:1015300005D084F854603CE00220BDE8F081A06D45
:10154000C00404D5E06D20F00600E06500E0E6652B
:10155000A06D40F60161884340F48070A065A06DE5
:1015600020F48010A065216D1348C862216D1348D6
:101570000863216D1248486321681C2008602068B8
:10158000416841F0100141602068C16841F00101EB
:10159000C16021683B4642464031206D00F038FA78
:1015A00084F854602068816841F00401816000E0A3
:1015B00002252846C1E70000EB0300085D0400088F
:1015C00043040008704700002DE9F04704464079C5
:1015D000002715460E46012809D04FF0010984F86E
:1015E0000590022020713068042803D044E00220D6
:1015F000BDE8F0874FF003080DBB00F00BFC074679
:1016000005E000BF00F006FCC01B01280FD82068D1
:10161000406B0004F6D4012000F048FA2168B0695C
:10162000086416E000F0F6FBC01B012807D920690A
:1016300040F00800206184F804800320D8E7206887
:10164000406B0028EEDB012000F030FA2168B06921
:1016500048642068816C40F2FF32AA409143F269ED
:10166000AA40114381642068C16CFF22AA409143C3
:10167000326AAA401143C1643069012808D1226846
:10168000916B1F20A84081437069A8400843906374
:101690002268D06B0721A9408843B3683168194399
:1016A000F3681943A9400143D163206801684FF4EE
:1016B0008042AA40914301602268116840F6FC70A4
:1016C000A84081437068A840084310602068016802
:1016D000C022AA409143016084F804900020607108
:1016E00086E7704770B50446006801684FF004054E
:1016F000890411D5416B89040ED52571216941F00A
:1017000001012161E90241632068016821F48051EF
:1017100001602046FFF7E5FF20680168890014D5C5
:10172000416B890011D52571216941F002012161C8
:101730004FF0005141632068016821F08051016041
:101740002046BDE87040FFF73DBF70BD70B5040096
:1017500003D02079002510B105E0012070BD65712E
:10176000204600F007F80220207125610120207139
:10177000002070BD00B50068104987B088421BD1B9
:101780000F48816D41F000518165806D694600F020
:10179000005005901020009003200190002002903E
:1017A0004FF0904000F06CFA00220521362000F046
:1017B00009FC362000F0FAFB07B000BD00740040C1
:1017C0000010024030B54279012A12D00122427144
:1017D0000223037103681D6802FA01F425431D60AA
:1017E000002901680B6806D0C3F383430F2B0AD08E
:1017F0000DE0022030BDC3F383030F2B07D14B68EC
:1018000043F0010302E04B6843F002034B600271B6
:1018100000214171084630BD10B590F82520002107
:10182000022A03D00421C163012115E00268136874
:1018300023F00E0313600268136823F001031360A2
:1018400090F84430046C012202FA03F3636080F8DC
:101850002520002280F82420084610BD10B590F8FD
:1018600025100024022903D00421C163012418E0BB
:1018700001680A6822F00E020A6001680A6822F014
:1018800001020A6090F84420036C012101FA02F27F
:101890005A6080F82510002180F82410816B01B176
:1018A0008847204610BDF0B4016C0D6801680C68D3
:1018B000466C042202FA06F32B420FD063070DD5C3
:1018C0000B689B0603D40B6823F004030B6090F8AD
:1018D00044108A40016C4A60016B1BE0022303FA4A
:1018E00006F72F424FF0000C4FF0010216D0A70769
:1018F00014D50C68A40605D40C6824F00A040C6006
:1019000080F8252090F844108B40016C4B6080F8E3
:1019100024C0C16A002918D0F0BC08470823B3408E
:101920002B4212D0230710D50B6823F00E030B6057
:1019300090F84410036C02FA01F15960C26380F818
:10194000252080F824C0416BE4E7F0BC704700001C
:1019500070B570B12B4D036814242B4A8168AB42DB
:1019600009D22A4D1D44B5FBF4F4A400C0E91024AB
:101970000BE0012070BD234D6D421D44B5FBF4F416
:10198000A40044641F4C083C0464022480F82540F1
:101990001C6843F6F075AC43C5682943D0E904568A
:1019A0003543294385692943C5692943056A294384
:1019B000214319608168B1F5804F15D0036C0F2168
:1019C000934202D152F8A83F02E00E4AA0321368B7
:1019D00090F84440A1408B43136090F84430416834
:1019E00099401368194311600021C162016341638A
:1019F0008163C163012280F8252080F82410084605
:101A000070BD00000804024000000240F8FFFDBF66
:101A100070B5044690F82400002501280CD0012060
:101A200084F8240094F825600020012E06D084F864
:101A300024000225284670BD022070BD022684F8CD
:101A40002560E0632068066826F0010606602046EF
:101A5000FEF786FD206B00282068016802D041F067
:101A60000E0106E021F0040101602068016841F0E8
:101A70000A0101602068016841F001010160D9E7B5
:101A8000094810B54FF0FF31816300228263016481
:101A9000026481628262C162C2620163026300F019
:101AA00043FA002010BD00000010024070B504464B
:101AB00000F0B0F90546601C00D0641C00F0AAF9E3
:101AC000401BA042FAD370BD2DE9F05F334D0646AE
:101AD0008846287801280BD001274CF2503A2F7005
:101AE0005046FEF725FF03004FF0000903D051E0F8
:101AF0000220BDE8F09F4846C5F80490284C2168B4
:101B000089050ED5206820F400702060206840050B
:101B100005D5206820F480602060032009E02F773D
:101B200008E02168490504D5206820F48060206021
:101B3000022028773068012808D04FF0FF31C8F81C
:101B40000010D34640F2FA7AB7681CE07068FEF7DE
:101B50003BFE5046FEF7ECFE0346606920F00400B1
:101B6000606115E038467168FEF73CFE5846FEF7A6
:101B7000DFFE0300606920EA0A00606102D0C8F855
:101B8000007005E07F1CD6E902010844B842E9D89C
:101B9000FEF7ECFD85F800901846AAE710F5002046
:101BA000002002400348416941F0004141610020AA
:101BB00070470000002002402DE9FF5F254C0646DB
:101BC000904620789A4601280BD0012020704CF2D4
:101BD000503B5846FEF7ACFE07004FF0000904D01A
:101BE0002AE0022004B0BDE8F09F4846C4F8049003
:101BF000194D2968490504D5286820F480602860BB
:101C00000220207726B1012E09D0022E07D00CE049
:101C1000424653460198FEF7FDFD012612E041467B
:101C20000198FEF703FE022E0AD05846FEF780FE0A
:101C30004FEA0007FEF79AFD84F800903846D1E796
:101C40004FF480265846FEF773FE07466869B04396
:101C50006861EFE710F50020002002400548416967
:101C6000002905DA04498160044981600020704739
:101C7000012070470020024023016745AB89EFCD6A
:101C80002DE9F84FDFF864B100234FF0010C4FF05D
:101C9000030A4FF00F090BF1040EA0E00CFA03F653
:101CA000324072D04C68022C01D0122C0ED1DC08CC
:101CB00000EB8408D8F820405D07EF0E09FA07F51D
:101CC000AC430D69BD402543C8F8205007685D004E
:101CD00091F804800AFA05F408F00308A74308FA0B
:101CE00005F848EA0708C0F800804F68012F05D0C2
:101CF000022F03D0112F01D0122F11D18768D1F8F4
:101D00000C80A74308FA05F848EA0708C0F80880DD
:101D10004768B7430E79C6F300169E403E434660BF
:101D2000C668A6438C68AC403443C4604C68E40089
:101D300054D52F4C256E45F001052566246E23F001
:101D4000030504F0010400942A4C2E19B4689D0781
:101D50002F0F09FA07F5AC43B0F1904F04D0264D90
:101D6000A84203D1012512E0002510E0234DA8422E
:101D700001D102250BE0224DA84201D1032506E046
:101D8000204DA84202D1042501E027E00725BD40EF
:101D90002543B560DBF800405D464E689443F6038A
:101DA00000D514432C60DEF8004075464E6894431D
:101DB000B60300D514432C600C4D08352C684E68D2
:101DC0009443F60200D514432C60084D0C352C6862
:101DD0004E689443B60200D514432C605B1C0A681D
:101DE00032FA03F47FF45AAFBDE8F88F00040140E3
:101DF00000100240000001400004004800080048B4
:101E0000000C0048001000480AB1816170478162EF
:101E10007047000001480068704700005804002027
:101E200070B5040011D021684CF6CC4008602168E0
:101E300045F255500860D4E9000141602168A0686E
:101E40008860FFF7E7FF054609E0012070BD00BF8D
:101E5000FFF7E0FF401B302801D9032070BD206848
:101E6000C0680028F4D120680269E1688A4201D084
:101E7000016102E04AF6AA210160002070BD0068FD
:101E80004AF6AA210160002070470000024801685C
:101E9000491C0160704700005804002010B5032061
:101EA00000F0B0F8002000F005F800F03FF8002046
:101EB00010BD000000B5014687B00022192000F0D7
:101EC00081F8192000F072F81348016E41F40061A6
:101ED0000166006E05A900F400600690684600F0F7
:101EE0001BFB00F04FFB0D490D4AB0FBF1F10D4813
:101EF000491E0260416040F2E7320021C0E903213F
:101F0000816000F0FDFF10B1012007B000BD054861
:101F100001F05BF8F9E700000010024040420F00BA
:101F2000002C01404C510020704700001E4808B5AD
:101F3000016E41F001010166016E01F001010091A5
:101F4000816D41F080518165806D00F0805000907E
:101F5000032000F057F8002211466FF00B0000F04C
:101F600031F8002211466FF00A0000F02BF8002231
:101F700011466FF0090000F025F800221146501FAD
:101F800000F020F800221146101F00F01BF800227C
:101F90000F21901E00F016F800220F21BDE8084026
:101FA000501E00F00FB800000010024000F01F02A9
:101FB000012191404009800000F1E020C0F80011AB
:101FC00070470000F0B40E4B1B680C46C3F30223AD
:101FD000C3F10705042D00D90425191D072901D2D5
:101FE000002300E0DB1E012606FA05F1491E214010
:101FF00099409E40761E16403143F0BC02F06FB906
:102000000CED00E0064900F0070208684FF6FF03F8
:10201000184040EA0220034A10430860704700005D
:102020000CED00E00000FA051549B0F5007F0868E6
:10203000C0F3412009D0022805D0086820F4C06010
:1020400040F480600860002070470128FBD00868D9
:1020500020F4C06040F4007008600A480A4A006832
:10206000B0FBF2F03222504300E0401E10B14A694A
:102070005205FAD448694005E5D5032070470000B1
:10208000007000405404002040420F0002480068E5
:1020900000F4C06070470000007000400248016812
:1020A00021F48071016070470070004002480168AF
:1020B00041F4807101607047007000402DE9F84FD5
:1020C000044600270088B54D3E46000515D5606CD6
:1020D00060B1B0F5000F04D0B0F5400F2BD0012750
:1020E0000AE0E86840F48030E86024E00021201D28
:1020F00002F018F907001ED03E46206880033AD54A
:10210000A86D4FF00008C00009D4A86D40F08050C1
:10211000A865A86D4FF0010800F080500090DFF82E
:1021200080A2DAF8001041F48071CAF80010FFF7BD
:1021300071FE814610E0D5F88800616C20F4400003
:102140000843C5F88800D8E7FFF764FEA0EB090054
:10215000022801D9032705E0DAF80000C005F3D50D
:10216000002F7DD04FEA0706B8F1000F03D0A86D0D
:1021700020F08050A8652078C00707D0D5F88800E7
:10218000216A20F003000843C5F888002078800702
:1021900007D5D5F88800616A20F00C000843C5F81F
:1021A00088002078400707D5D5F88800A16A20F07C
:1021B00030000843C5F888002078800607D5D5F898
:1021C0008800E16A20F440600843C5F88800208850
:1021D000800507D5D5F88800E16B20F4402008433E
:1021E000C5F888002088400507D5D5F88800216CFF
:1021F00020F440100843C5F888002078400607D531
:10220000D5F88800216B20F440500843C5F88800B9
:102210002078000607D5D5F88800616B20F440408F
:102220000843C5F888002088C00507D5D5F8880080
:10223000A16B20F440300843C5F8880020884FF097
:10224000006780044FF0806850D5D5F88800A16CF5
:1022500020F040600843C5F88800A06CB84200E058
:1022600005E03BD1E86840F48010E8603EE0D5F836
:10227000900010F4407014D0E16D814211D0D5F877
:102280009000D5F8901020F4407041F48031C5F8EA
:102290009010D5F8901021F48031C5F89010C5F851
:1022A0009000C00711D0FFF7B5FD074641F288390D
:1022B00007E000BFFFF7AEFDC11B494501D903266A
:1022C00052E7D5F890008007F4D5D5F89000E16D7D
:1022D00020F440700843C5F8900045E7404505D11B
:1022E0000121201D02F01EF800B1064620680003FF
:1022F00017D5D5F88800E16C20F040600843C5F898
:102300008800E06CB84204D1E86840F48010E860CE
:1023100007E0404505D10121201D02F003F800B17E
:1023200006462068400317D5D5F88800216D20F0B7
:1023300040600843C5F88800206DB84204D1E868C1
:1023400040F48010E86007E0404505D10121201DE0
:1023500001F0E8FF00B106462088400411D5D5F809
:102360008800616D20F040500843C5F88800606D1A
:10237000B0F1805F05D10221201D01F0D3FF00B133
:1023800006462088000406D555F8880FA16D20F078
:102390008040084328603046BDE8F88F00100240B6
:1023A000007000402DE9F047DFF85C8105460E46DD
:1023B000D8F8000000F00700B0420CD2D8F80010A6
:1023C00021F007013143C8F80010D8F8000000F0F0
:1023D0000700B04274D128784C4C800705D5A0681E
:1023E000A96820F0F0000843A0602878C00756D004
:1023F0006868022818D0032819D02168D0B149058F
:1024000000295DDAA16821F003010143A160FFF713
:1024100001FD6968074641F28830022912D003297C
:102420001ED0814649B335E021688903E8E7216879
:102430008901E5E78907E3E7FFF7ECFCC11B4945A4
:1024400001D924E08146A068C0F381000228F3D1BD
:1024500025E000BFFFF7DEFCC11B494501D916E0AE
:102460008146A068C0F381000328F3D117E000BFC4
:10247000FFF7D0FCC11B494509D8A06810F00C0F2C
:10248000F6D10CE0FFF7C6FCC11B494502D9032079
:10249000BDE8F087A068C0F381000128F2D1D8F828
:1024A0000010404601F00701B1420BD9016821F04C
:1024B000070131430160006800F00700B04201D01D
:1024C0000120E5E72878400705D5A068E96820F4F1
:1024D000E0600843A0602878000706D5A068296955
:1024E00020F4605040EAC100A06000F05BF8A168F1
:1024F000074AC1F30311515CC84006490860002037
:10250000FFF7D8FC0020C3E7002002400010024083
:102510007C7F0008540400200F2202600C4A93685C
:1025200003F003034360936803F0F0038360936850
:1025300003F4E063C36092684FF4E06303EAD202FD
:1025400002610448006800F007000860704700005E
:10255000001002400020024001480068704700005F
:10256000540400200448054900688968044AC1F3FE
:102570000221515CC8407047540400200010024002
:10258000BC7F00080448054900688968044AC1F313
:10259000C221515CC8407047540400200010024022
:1025A000BC7F000830B52D49002318468A682C4CA2
:1025B00012F00C0F4FF4610514D08A68C2F3810247
:1025C000032A04D1CA6802F00302012A0AD08A68E9
:1025D000C2F38102012A19D08A68C2F38102022A59
:1025E00016D016E00A68120704D4D1F89420C2F37A
:1025F000032202E00A68C2F303121A4B53F8223096
:102600008A6812F00C0F04D1184602E0204600E060
:1026100028468A68C2F38102032A1DD1C868CA68A5
:1026200000F00300C2F30212521C022804D0032857
:1026300005D0B3FBF2F004E0B4FBF2F001E0B5FB2F
:10264000F2F0CA68C968C2F306225043C1F341617F
:10265000491C4900B0FBF1F030BD00000010024001
:102660000024F4008C7F000870B5104C86B016462C
:10267000E06C0D4640F00100E064E06C694600F05B
:1026800001000590A0150090022001900390002009
:10269000029004904FF09040FFF7F2FAA0683543A3
:1026A00020F0FE402843A06006B070BD001002403C
:1026B0002DE9F84304460078FD4DC0065DD5A868B5
:1026C00010F00C0F0AD0A0690028286871D040F0E3
:1026D00001002860FFF79EFB064654E0286880074B
:1026E00002D5A06900287DD0216A2868000703D59B
:1026F000286800F0F00004E0D5F89400F02202EA27
:102700001010814216D9084601F0A2FE002869D1B6
:10271000286840F0080028602868216A20F0F0004E
:10272000084328606868E16920F47F4040EA01209E
:10273000686015E0286840F0080028602868216A71
:1027400020F0F000084328606868E16920F47F40C9
:1027500040EA01206860206A01F07AFE0028D6D1A4
:10276000FFF720FFA968D34AC1F30311515CC840A9
:10277000D14908600020FFF79DFB29E0FFF74AFBE5
:10278000801B02287ED828688007F7D5286840F08B
:10279000080028602868216A20F0F00008432860BB
:1027A0006868E16920F47F4040EA012068600FE03A
:1027B000FFE720F001002860FFF72CFB064604E04D
:1027C000FFF728FB801B0228DCD828688007F7D495
:1027D0002078C0074AD0A868C0F3810002281FD023
:1027E000A86800E098E0C0F38100032803D1E868FE
:1027F000C043800714D06068B0F5803F17D0B0F5B3
:10280000A02F286817D020F480302860286820F492
:10281000802028606068E0B1FFF7FCFA064614E00B
:102820002868800322D56068002875D01EE02868DB
:1028300040F48030EDE740F480202860F7E700BFE7
:10284000FFF7E8FA801B64289CD828688003F7D536
:102850000CE0FFF7DFFA064605E000BFFFF7DAFA03
:10286000801B64288ED828688003F7D420788007DE
:1028700042D5A868C0F38100012816D0A868C0F32B
:10288000810000E0CEE0032804D1E86800F00300F6
:1028900002280AD0E068002828681DD040F4807023
:1028A0002860FFF7B7FA06460BE0286840050BD50D
:1028B000E0680028B9D007E0FFF7ACFA801B0228D7
:1028C000C2D828684005F7D56868217C20F0F85008
:1028D00040EA016068600FE020F480702860FFF734
:1028E00099FA064605E000BFFFF794FA801B02281C
:1028F000AAD828684005F7D42078000729D5606950
:102900000028D5F8940013D040F00100C5F89400D9
:10291000FFF780FA064606E01DE100BFFFF77AFAEE
:10292000801B02287ED8D5F894008007F6D510E0E9
:1029300020F00100C5F89400FFF76CFA064604E0A9
:10294000FFF768FA801B02286CD8D5F8940080073E
:10295000F6D42078400761D5A86D0026C00008D4C1
:10296000A86D40F08050A865A86D012600F0805049
:10297000009052480168C90511D40168804641F4AD
:1029800080710160FFF746FA074604E0FFF742FA5C
:10299000C01B022846D8D8F80000C005F6D5A068AC
:1029A000012815D00528D5F8900016D020F0010098
:1029B000C5F89000D5F8900020F00400C5F890000C
:1029C000A06841F28838B8B1FFF724FA07460EE054
:1029D000D5F8900040F00100F0E740F00400C5F8A1
:1029E0009000F5E7FFF716FAC11B41451AD8D5F854
:1029F00090008007F6D50CE0FFF70CFA074604E0DC
:102A0000FFF708FAC11B41450CD8D5F890008007A4
:102A1000F6D41EB1A86D20F08050A86520788006FD
:102A200029D500E089E0606A0028D5F8980011D027
:102A300040F00100C5F89800FFF7ECF9064604E005
:102A4000FFF7E8F9801B02287DD8D5F898008007A9
:102A5000F6D510E020F00100C5F89800FFF7DAF98C
:102A6000064604E0FFF7D6F9801B02286BD8D5F89C
:102A700098008007F6D4A06AC8B1A968C1F38101A3
:102A8000032968D00228286820F08070286019D0B7
:102A90002868000103D4E86820F00300E860E868D3
:102AA00007490840E860FFF7B5F904464EE050E0FA
:102AB000001002407C7F0008540400200070004099
:102AC000FFFFEEFEFFF7A6F9064604E0FFF7A2F9C6
:102AD000801B022837D828688001F7D4206B54F86F
:102AE0002C1F000110380843218A1C4A490802EBB8
:102AF0004151A26841EA02210843217D4FF07E4204
:102B0000490802EB41610843217B40EAC160E8606B
:102B1000286840F080702860E86840F08070E860C5
:102B2000FFF778F9044604E0FFF774F9001B022868
:102B300009D828688001F7D50BE004E0FFF76AF9AF
:102B4000001B022802D90320BDE8F8832868800111
:102B5000F4D40020F8E70120F6E700000000E0FFD1
:102B60002DE9F0411D4616460F46040003D094F8A7
:102B7000690018B108E00120BDE8F081002084F868
:102B80006800204600F000FD242084F869002068D9
:102B9000016821F001010160204601F0D3FF012806
:102BA000EAD0606A10B1204601F094FE2068816886
:102BB00041F4804181602068816821F400413943FB
:102BC0008160700540EA054120680268064B1A40A2
:102BD0000A4302602068016841F00101016020465B
:102BE000BDE8F04101F0DABEFFFF00FC00685030A4
:102BF00050F8210070470068503040F8212070479D
:102C00002DE9F041040005D00025A56294F85D008F
:102C100018B107E00120BDE8F08184F85C5020463F
:102C200000F044F8022384F85D302068016821F048
:102C300040010160E0684FF4E066B04201D9002134
:102C400001E04FF48051B0F5706F02D0B04200D077
:102C5000A562276B012227B9B04201D9236300E0A6
:102C60002263D4E901031843D4E9043633431843FB
:102C7000238B03F400731843E3691843236A184352
:102C8000A36A184323681860636B606AA6691843D7
:102C90000427E36807EA16463343184308432168CC
:102CA0004860256684F85D200020B4E700B5006820
:102CB0000E4987B0884217D10D48816D41F480419B
:102CC0008165806D694600F4804005904FF4204096
:102CD0000090022001900020029003200390052024
:102CE00004900448FEF7CCFF07B000BD0038004058
:102CF00000100240000400482DE9F84F044690F807
:102D00005C000026984617460D4601280DD04FF06E
:102D1000010A84F85CA0FFF77DF8834694F85D0013
:102D2000B146012804D002269BE00220BDE8F88FBE
:102D3000002D73D0002F71D0032084F85D00C4F8FB
:102D40006090A563A787E787C4F84090A4F84490F3
:102D5000A4F84690C4F85090C4F84C90A068B0F520
:102D6000004F04D12068016841F48041016020686F
:102D70000168490603D4016841F040010160E06840
:102D8000B0F5E06F606823D910B1E08F01281BD146
:102D9000216835F8020BC86006E020688168890761
:102DA00006D535F8021BC160E08F401EE0870BE0BE
:102DB000B8F1000F3FD0B8F1FF3F05D0FFF72AF878
:102DC000A0EB0B01414536D2E08F0028E5D137E07A
:102DD00010B1E08F012830D1E08F012804D921689B
:102DE00035F8020BC86010E0216815F8010B087374
:102DF00011E0E08721E02068816889070FD5E18F25
:102E0000012905D935F8021BC160E08F801EF0E76B
:102E100015F8011B0173E08F401EEAE720E0B8F1CE
:102E2000000F08D0B8F1FF3F07D0FEF7F3FFA0EB8B
:102E30000B01414501D3032613E0E08F0028DAD1CE
:102E40005A464146204601F041FB08B12020206649
:102E5000A06818B92068C16880680090206E00B131
:102E6000012684F85DA084F85C9030465EE74FF060
:102E7000E0210428086903D020F0040008617047AD
:102E800040F00400FAE710B5401EB0F1807F01D396
:102E9000012010BD4FF0E02460610F21601701F0A8
:102EA0001EFA0020A06107202061002010BD70479D
:102EB0007047000030B590F83820012A1CD001225C
:102EC00080F8382003685A689C680C4DAB4203D1E7
:102ED00022F470054A682A4322F070050A6889685E
:102EE0002A4324F0800421435A6002689160002143
:102EF00080F83810084630BD022030BD002C01405B
:102F000010B5040003D094F8390010B107E0012097
:102F100010BD002084F83800204600F00DF8022093
:102F200084F83900211D206801F038FC012084F864
:102F30003900002010BD000008B501681948B1F142
:102F4000804F11D0184A914217D1816D41F0100184
:102F50008165806D002200F0100000900521362070
:102F6000FFF730F8362019E0816D41F001018165ED
:102F7000806D00F00100009008BD0C4A9142FBD129
:102F8000816D41F020018165806D002200F02000FC
:102F9000009011463720FFF715F83720BDE80840AC
:102FA000FFF704B800100240001000400014004079
:102FB000022180F8391001680A6842F001020A60B3
:102FC000012180F83910002070470168CA6842F07A
:102FD0000102CA600068016841F00101016000203F
:102FE0007047000070B5044690F83800012817D0EB
:102FF000012584F83850022084F83900226890684E
:10300000364E304020F47F4090600868502839D018
:103010000DDC20285BD005DC98B3102843D153E0A9
:10302000022070BD302855D040283CD141E06028B6
:1030300030D070280CD0B0F5805F03D0B0F5005FC1
:1030400031D112E020688168244A7032114016E0C4
:10305000CB68D1E90121206801F0D2FB21688868A2
:10306000304040F0770088601DE0CB68D1E9012155
:10307000206801F0C5FB2068816841F480418160CF
:1030800011E01EE0CA684968206801F0CBFB5021BE
:10309000206806E0CA684968206801F0D4FB602116
:1030A000206801F0B7FB84F83950002084F838001C
:1030B00070BDCA684968206801F0B4FB40212068EF
:1030C000EFE700212068ECE710212068E9E72021E4
:1030D0002068E6E730212068E3E7000088FFFEFF74
:1030E000704770B50446006801694FF00005C94398
:1030F000890715D4C168C943890711D4E91E016144
:1031000001202076206880698007204602D0FFF7E2
:10311000E7FF04E000F098F8204600F096F82576E6
:1031200020680169C943490717D4C168C9434907E1
:1031300013D46FF0040101610220207620688069B9
:1031400010F4407F204602D0FFF7CAFF04E000F0F1
:103150007BF8204600F079F8257620680169C9439C
:10316000090716D4C168C943090712D46FF00801D2
:103170000161042020762068C0698007204602D0C3
:10318000FFF7AEFF04E000F05FF8204600F05DF8C6
:10319000257620680169C943C90617D4C168C943A7
:1031A000C90613D46FF01001016108202076206851
:1031B000C06910F4407F204602D0FFF791FF04E081
:1031C00000F042F8204600F040F8257620680169BA
:1031D000C943C90708D1C168C943C90704D1891EB9
:1031E0000161204600F032F820680169C9430906F0
:1031F00009D4C168C943090605D46FF08001016193
:103200002046FFF754FE20680169C943490609D4E6
:10321000C168C943490605D46FF0400101612046E9
:1032200000F080F820680169C94389060BD4C168A1
:10323000C943890607D46FF0200101612046BDE82B
:103240007040FFF735BE70BD7047704770B50446DB
:1032500000682B49884201D1FEF718FE29492068F1
:1032600088422ED1284C206A616A401C41F100013D
:1032700020626162216A606A0A3970F100000BD332
:10328000A1680020A161E061A060206260621F4A25
:103290001178012916D0E060A269E5696421A2FBDA
:1032A000010605FB0161002302FB0311184AFCF72C
:1032B000E7FF64230022D0EB030062EB01022061F0
:1032C000626170BDE1680F2902D9124B1B7813B1FE
:1032D000491CE160E0E710491070487000210120AE
:1032E00002F002FBBFF34F8F0C4801680C4A01F457
:1032F000E06111430160BFF34F8F00BFFDE70000A5
:10330000002C01400014004068000020B50000209F
:10331000AEA01400B600002092EE00200CED00E0FC
:103320000400FA057047704710B5044690F869002C
:1033300021280ED12068816809060AD5816821F00C
:1033400080018160206E08B1FEF766FA204601F028
:10335000B4FB94F86A0022280ED1206881684906DF
:103360000AD5816821F040018160606E08B1FEF7E6
:1033700053FA204601F093FB002010BD7047000077
:1033800070B501680446C8690A6810F00F0508D1D5
:10339000830606D5930604D52046BDE8704001F0AB
:1033A00095BB8B68002D66D003F0010502F4907682
:1033B0002E4360D0C60707D0D60505D501260E627C
:1033C000E16E41F00101E166810708D5D90706D019
:1033D000266802213162E16E41F00401E166410795
:1033E00008D5D90706D0236804211962E16E41F09F
:1033F0000201E16601070AD502F02001294306D047
:10340000236808211962E16E41F00801E166E16E6E
:10341000002929D0800604D5900602D5204601F067
:1034200055FBE06E000703D42068806840061CD579
:10343000204601F034FB20688168490611D5816877
:1034400021F040018160606E58B133498163606E44
:10345000FEF704FA002807D0606E816BBDE870406B
:1034600008472046FFF78AFF70BD2046FFF786FF1A
:103470000020E06670BD8D68C6024FF020030CD5B9
:103480006D020AD5D803086284F8693084F86A307E
:103490002046BDE87040FFF746BF05062ED515064D
:1034A0002CD594F869002128E4D1B4F8520020B159
:1034B000A068B0F5805F0AD00BE0086820F08000BB
:1034C00008602068016841F04001016070BD20691A
:1034D00058B1E06C411CE16421680078A1F8280033
:1034E00034F8520F401E208070BDE06C0088C0F39D
:1034F00008000885E06C801CE064F1E74006F3D525
:103500005006F1D5086820F04000086084F8693062
:10351000204600F0D3F970BDF949000810B5040049
:1035200003D094F8690010B107E0012010BD00201D
:1035300084F86800204600F027F8242084F8690009
:103540002068016821F001010160204601F0FAFACB
:103550000128EBD0606A10B1204601F0BBF9206869
:10356000416821F4904141602068816821F02A017E
:1035700081602068016841F0010101602046BDE8DA
:10358000104001F00BBA00002DE9F04F0446DFF8BF
:103590006882D0F800C0994B03200721002502263D
:1035A000802787B04FF001094FF090424FF0100A8A
:1035B000C44554D1D3F860C04CF4804CC3F860C00B
:1035C0001B6E03F480430593CDE9030143028DE8AC
:1035D000480269461046FEF753FBDFF82882884907
:1035E0004046C8F80010C0E90165C0E90357C8F8B3
:1035F0001450C8F81850C8F81C50C8F82050FEF7EE
:10360000A7F918B1AE2180A001F081FCC4F8648054
:10361000C8F82840DFF8EC81794908F148084046AD
:103620001439C0E90357C8F81450C8F81850C8F83E
:103630001C5088E84204C8F82050FEF789F918B1F8
:10364000BF2171A001F063FCC4F860800022052155
:103650002520C8F82840FEF7B5FC252062E0DFF8F9
:10366000B881C44563D1D3F858C04CF4003CC3F8CA
:1036700058C09B6D884603F400330096CDE904835F
:1036800003900025CDE90165834669464FF09040DF
:10369000FEF7F6FA0C20CDF810808DE8410A694655
:1036A0004FF09040FEF7ECFADFF85881544908F1EA
:1036B000900814314046C8F80010C0E90165C0E91F
:1036C0000357C8F81450C8F81850C8F81C50C8F868
:1036D0002050FEF73DF918B1F3214BA001F017FC83
:1036E000484D4748C4F86480D8352830C8F8284089
:1036F00085E841040020C5E903076861A861E86125
:1037000028622846FEF724F920B14FF482713EA0CA
:1037100001F0FDFB2566002205212620AC62FEF7A4
:1037200051FC2620FEF742FC07B0BDE8F08F3B4A73
:103730009445F9D19A6D42F480229A659A6D8B4630
:1037400002F480220096CDE904B20390CDE9016530
:10375000804669463248FEF793FA4FF440608DE8A0
:103760004102CDE9038B69462D48FEF789FA2449C9
:10377000DFF8B08028394046C8F80010C0E901657C
:10378000C0E90357C8F81450C8F81850C8F81C50BE
:10379000C8F82050FEF7DCF820B14FF49C711AA055
:1037A00001F0B5FBC4F86480C8F82840DFF87480E5
:1037B000134908F1480840463C39C0E90357C8F8A6
:1037C0001450C8F81850C8F81C5088E84204C8F8CB
:1037D0002050FEF7BDF820B140F249110AA001F0D7
:1037E00096FBC4F86080002205212720C8F82840F5
:1037F000FEF7E8FB272095E7003801400010024063
:103800005800024058F000202E2E2F5372632F755F
:10381000736172742E630000004400400048004051
:103820000004004878F1002070B5044690F86A0062
:10383000202839D1A9B3A2B394F86800012833D065
:10384000012084F868006165A4F858200025E56629
:10385000222084F86A00616E14481346C862616EC3
:1038600013480863616E13484863606E8563666D34
:10387000216832462431606EFEF7CAF884F8685039
:103880002068016841F4807101602068816841F01E
:10389000010181602068816841F040018160002061
:1038A00070BDFFE70120FBE70220F9E7574A000857
:1038B000954A00080D4A0008704770477047FEE7B8
:1038C00010B54468006880F30888FEF7D9F8A4466C
:1038D000BDE810406047000070B52E4896B02C49F6
:1038E0000024C0E90014012584600421C0E90345D7
:1038F000C0E905140226C0E907464FF4507144623E
:10390000C0E90A51A9020163C0E90D54C463FDF77F
:10391000CDFC18B1592120A001F0F9FA1D48FDF79E
:1039200064F80B200F90CDE91054129413940FA952
:1039300018481494FDF7B6FA18B16A2116A001F0E0
:10394000E6FA0C20CDE90F060FA91248FDF7AAFAF6
:1039500018B1732110A001F0DAFA0F200090CDE920
:10396000015403940494CDE9054507940894CDE9E6
:1039700009450B94694607480C94FDF743F8002865
:1039800003D0872104A001F0C2FA16B070BD000078
:1039900000000450BCF200202E2E2F5372632F61C2
:1039A00064632E630000000000B5104989B00E4822
:1039B00008600846FDF7CAFE18B147210CA001F0C7
:1039C000A6FA002000900190029003900246049015
:1039D00069460648FDF7F8FD002803D0532104A0EE
:1039E00001F095FA09B000BD007400406CF30020AE
:1039F0002E2E2F5372632F6461632E63000000002C
:103A0000214808B5816C41F001018164806C00227D
:103A100000F00100009005210B20FEF7D3FA0B20E7
:103A2000FEF7C4FA002205210C20FEF7CBFA0C2089
:103A3000FEF7BCFA002205210D20FEF7C3FA0D2087
:103A4000FEF7B4FA002211460E20FEF7BBFA0E2054
:103A5000FEF7ACFA002211460F20FEF7B3FA0F2052
:103A6000FEF7A4FA002205211020FEF7ABFA102081
:103A7000FEF79CFA002205211120FEF7A3FABDE80B
:103A800008401120FEF792BA0010024030B595B000
:103A900000220421102002F061FB924C002204213C
:103AA000E064102002F05AFB20650022042110205F
:103AB00002F054FB606500220421102002F04EFB4E
:103AC000A06500220421102002F048FBE0650022DE
:103AD0000421102002F042FB206603220021012075
:103AE00002F03CFBE06020B100231A46194602F0C8
:103AF00053FC03220021012002F030FB206120B1A1
:103B000000231A46194602F047FC03220021012037
:103B100002F024FB606120B100231A46194602F02E
:103B20003BFC03220021012002F018FBA06120B120
:103B300000231A46194602F02FFC0322002101201F
:103B400002F00CFBE06120B100231A46194602F096
:103B500023FC03220021012002F000FB206220B19F
:103B600000231A46194602F017FC03220021012007
:103B700002F0F4FA606220B100231A46194602F0FE
:103B80000BFC03220021012002F0E8FAA06220B120
:103B900000231A46194602F0FFFB032200210120F0
:103BA00002F0DCFAE06220B100231A46194602F066
:103BB000F3FB03220021012002F0D0FA206320B1A0
:103BC00000231A46194602F0E7FB032200210120D8
:103BD00002F0C4FA606320B100231A46194602F0CD
:103BE000DBFB03220021012002F0B8FAA06320B120
:103BF00000231A46194602F0CFFB032200210120C0
:103C000002F0ACFAE06320B100231A46194602F034
:103C1000C3FB03220021012002F0A0FA206420B19E
:103C200000231A46194602F0B7FB032200210120A7
:103C300002F094FA606420B100231A46194602F09B
:103C4000ABFB03220021012002F088FAA06420B11E
:103C500000231A46194602F09FFB012001F038FEAE
:103C6000214D6066284601F0E5FD2049626E3AB9B3
:103C7000401C05D0002048752846FFF721FE01E0D2
:103C80000120487514221A496846FCF72AFB0021D6
:103C9000684601F0FBFA134914228039C8671449B9
:103CA00005A81431FCF71DFB002105A801F0EEFA70
:103CB0000F492060142228310AA8FCF712FB0021CA
:103CC0000AA801F0E3FA0A49606014223C310FA807
:103CD000FCF707FB00210FA801F0D8FAA06015B08F
:103CE00030BD0000A001002000000108A00000205D
:103CF0002C6900082DE9F043354887B0C16C41F0CC
:103D00000401C164C16C01F004010591C16C41F072
:103D10008001C164C16C01F080010591C16C41F06A
:103D20000101C164C16C01F001010591C16C41F058
:103D30000201C164C06CDFF89C8000F0020045F213
:103D4000F0060590002231464046FEF75DF84FF43C
:103D5000C0574FF09049002239464846FEF754F8C4
:103D60004FF42040002401258DE8310069461A48AF
:103D7000FDF786FF20208DE8310069464846FDF7B3
:103D80007FFF4FF441708DE8310069464046FDF7F2
:103D900077FF0096CDE90154694640460394FDF74C
:103DA0006FFF280200900220CDE9010403946946C8
:103DB00048460494FDF764FF0097CDE90154694635
:103DC00048460394FDF75CFF07B0BDE8F0830000B0
:103DD0000010024000040048000800480C4810B5DC
:103DE0000A4901600321416040F6FF71C1604FF450
:103DF00000618160FEF714F8002805D0BDE810408E
:103E0000452104A001F083B810BD0000003000403F
:103E100000F500202E2E2F5372632F697764672ED2
:103E200063000000134810B5114901604FF482711E
:103E3000416000214FF4E062C0E9021202220261F7
:103E400001224261520282613822C0E90721072221
:103E50004162C0E90A1201634163FEF7D1FE002806
:103E600005D0BDE81040512103A001F050B810BDAD
:103E700000380040A4EE00202E2E2F5372632F73C3
:103E800070692E630000000010B5174888B04FF02D
:103E9000804101604FF4FA510024C0E90114611E11
:103EA000C0E90314FFF72CF818B14A210FA001F064
:103EB0002EF84FF48050039003A90B48FFF792F8B7
:103EC00018B1502109A001F022F800946946064873
:103ED0000294FEF7EFFF002803D0572103A001F062
:103EE00016F808B010BD000008F200202E2E2F5347
:103EF00072632F74696D2E63000000003EB5104898
:103F00000E490024C0E9001440F63441C0E90241E2
:103F1000FEF7F6FF18B166210AA000F0F8FF202096
:103F20000090694602940648FEF7C4FF002803D0BB
:103F30006D2104A000F0EBFF3EBD0000001000402A
:103F400044F200202E2E2F5372632F74696D2E635E
:103F5000000000003EB510480E490024016041F603
:103F60003F71C0E90114C910C160FEF7C9FF18B163
:103F70007C210AA000F0CBFF20200090694602942B
:103F80000548FEF797FF002803D0832103A000F027
:103F9000BEFF3EBD0014004080F200202E2E2F53A5
:103FA00072632F74696D2E6300000000104810B515
:103FB0000E4901604FF496614160002181600C223E
:103FC000C160C0E904128161C161016210214162D6
:103FD00009028163FFF7A2FA002805D0BDE810406E
:103FE000592104A000F093BF10BD0000003801402B
:103FF00008EF00202E2E2F5372632F757361727499
:104000002E630000134810B51149016012490C22BB
:10401000002391ED000A0021BCEEC00A80ED010AE8
:104020008160C160C0E904128161C1610162102137
:104030004162090281631A461946FEF791FD002884
:1040400005D0BDE810406F2104A000F060BF10BD96
:104050000044004078EF0020240400202E2E2F532F
:1040600072632F75736172742E630000134810B56C
:104070001149016012490C22002391ED000A002130
:10408000BCEEC00A80ED010A8160C160C0E9041283
:104090008161C161016210214162090281631A4696
:1040A0001946FEF75DFD002805D0BDE810408521CA
:1040B00004A000F02CBF10BD00480040E8EF002035
:1040C000280400202E2E2F5372632F757361727493
:1040D0002E630000FEE700001A4C1B4D1B4F1C4EC8
:1040E0004FF000084FF0FF3A4FF0100900235246FE
:1040F0001946E06A02F056F82968C1F8209028684D
:10410000016841F0100101600F48FFF70DF9082226
:1041100010490D48FFF788FB012210213046C7F8EF
:104120000080FDF771FE012001F09AF800221021B5
:104130003046FDF769FE00231A461946206B02F04F
:104140002BF9D3E7A001002078EF002074000020B5
:104150000004004834EB00208AB00024ADF8004091
:10416000ADF80040ADF80040ADF80040ADF80040BB
:104170004FF0010800940194ADF81080CDE9064499
:10418000ADF80840ADF80C40DFF844A1DFF844B1C9
:10419000514EAAF18007A7F18009039400235A1E0B
:1041A0001946DAF8300001F0FDFFB86F022856D149
:1041B000FDF754FD31787278200240EA1260120255
:1041C0008A1844EB0005B078210441EA104100044C
:1041D00010184D41F178220642EA112209064018D2
:1041E0003179554100194D417179001945EB01258F
:1041F000B179001945EB0145F179001945EB0165ED
:10420000CDE90605BDF81000DDE906230BEBC00182
:104210005D464FF00000FDF7CFFCFDF7C3FCBDF895
:104220001000401CADF81000009801990830009073
:10423000884214D3284600F063FFADF80C00BDF8A7
:104240000C00BDF80810BC6788420094ADF810401F
:1042500003D189F8164000F053F889F81680B86F3A
:10426000012814D1F0787078B178000200EB014099
:10427000317808440190F0797079B179000200EB4F
:10428000014031790844ADF808000220B867307861
:10429000012883D17078022880D1B86F0028F8D126
:1042A000202007900394232005940890FDF7D6FC66
:1042B000B86703A905A8FDF707FCB867FDF772FC0E
:1042C000C7F878800094ADF8104089F8164065E78B
:1042D000A00100200000010834EB0020704709070E
:1042E000090E002806DA00F00F0000F1E02080F847
:1042F000141D704700F1E02080F8001470470000A2
:10430000BFF34F8F05480168054A01F4E06111438E
:104310000160BFF34F8F00BFFDE700000CED00E030
:104320000400FA052DE9F041444C05468846E06852
:104330000026810728680DD0E16801F00301814261
:1043400016D1A8B1E0686968C0F30210401C884229
:104350000ED120E0012804D0022805D0032807D17F
:1043600008E02168890701E021684905002907DB89
:1043700001265FE02168890302D421684903F5E73B
:10438000E1686A686FF00F0321F0730103EB02121A
:1043900011430143E160206820F080602060FDF758
:1043A00039FD074605E000BFFDF734FDC01B0228BC
:1043B00037D820680001F7D4B8F1000F18D0B8F151
:1043C000010F1DD0287D4FF07E41400801EB406079
:1043D000A96840EA01202169194A11400843206177
:1043E000206840F080602060FDF714FD07461AE069
:1043F000A868297B000240EAC1602169114AECE704
:10440000288A1149400801EB4050A96840EA012080
:1044100021690E4AE1E700BFFDF7FCFCC01B022842
:1044200001D9032606E020680001F5D52069A969B5
:10443000084320613046BDE8F081000000100240D2
:10444000FF80FFF9FF80FF070000E0FFFF809FFF74
:10445000F8B51C4D06460024A86DC00002D5FDF736
:1044600015FE0DE0A86D40F08050A865A86D00F025
:1044700080500090FDF70AFEA96D21F08051A965DA
:10448000B0F5007F04D0802E07D94FF003040AE076
:10449000802E08D9A02E01D804E001D1022402E028
:1044A000702E00D101240848016821F00701214342
:1044B0000160006800F00700A04201D00120F8BDB3
:1044C0000020F8BD0010024000200240F8B515465B
:1044D0000E460B460092044600224FF4C05100F0F5
:1044E00019F888B93346002280212046009500F053
:1044F00060F848B9334600224FF4C0612046009569
:1045000000F008F8002804D0206E40F0200020665B
:104510000320F8BD2DE9F8431D4617460E46044614
:104520004FF4C068DDF820903CE0464505D127B93E
:10453000007B8DF800009DF80000681C32D02DB182
:10454000FDF768FCA0EB0900A8422BD32068416866
:1045500021F0E00141606068B0F5827F0BD1A06876
:10456000B0F5004F02D0B0F5806F04D1206801682B
:1045700021F040010160A06AB0F5005F09D1206818
:10458000016821F4005101602068016841F4005184
:104590000160012084F85D00002084F85C000320A5
:1045A000BDE8F883206881683140B942BDD1002060
:1045B000F6E72DE9F0411D4617460E460446DDF8A4
:1045C000188034E0681C32D02DB1FDF723FCA0EB3D
:1045D0000800A8422BD32068416821F0E001416027
:1045E0006068B0F5827F0BD1A068B0F5004F02D0B3
:1045F000B0F5806F04D12068016821F040010160AE
:10460000A06AB0F5005F09D12068016821F400516B
:1046100001602068016841F400510160012084F8C4
:104620005D00002084F85C000320BDE8F081206874
:10463000806836EA000004D00020B842C2D10020D1
:10464000F3E70120F9E700F011F94FF47A7400F074
:1046500013F9204600F004FEF9E700F00DBE2DE945
:10466000F041AEB00B2018904FF48030199000123A
:104670004FF01008CDE91B080224012022941D9060
:104680000426CDE9234650200727CDE92507CDE9AB
:10469000274618A8FEF70CF800B1FEE70F2000250A
:1046A00029900320CDE92A052C95042129A82D95D0
:1046B000FDF778FE00B1FEE744F2070000904FF0EE
:1046C000805001A91590CDE908450A9581E850016F
:1046D0000011CDE90640CDE904746846FDF7EEFC13
:1046E00000B1FEE74FF00052D1100020FDF7BCFFF3
:1046F0004FF40070FDF798FC00B1FEE7FDF72CFFCA
:104700004FF47A71B0FBF1F0FEF7BDFB0420FEF729
:10471000AEFB00220F21501EFDF754FC2EB0BDE869
:10472000F08100000D48016841F4700101600C48FF
:10473000016841F001010160002181600268094BBC
:104740001A4002608214C260026822F48022026071
:1047500081610249C00380390860704788ED00E03C
:1047600000100240FFFFF6EA0148FEF7BABC000065
:104770004C51002010B50448FEF7B3FCBDE81040D2
:104780000248FCF7AFBF000044F200206CF30020A9
:104790000148FEF7A6BC000080F2002070B5026858
:1047A000144B4FF08046984201D0B04203D122F022
:1047B00070044A682243104C104D984205D0B04214
:1047C00003D0A04201D0A84203D122F44076CA68A7
:1047D000324302608A68C2620A688262984203D0E9
:1047E000A04201D0A84201D10969016301214161C0
:1047F00070BD0000002C0140004001400044014019
:1048000010B5846842EA032224F47F440A43224319
:10481000826010BD826822F070020A4342F00701F4
:104820008160704710B5036A046A24F001040462D1
:10483000846924F0F00444EA021423F00A020A43D3
:104840008461026210BD10B5036A23F01003036295
:104850008369046A23F4704343EA023224F0A0031C
:1048600043EA01118261016210BD00000148FEF7B8
:104870009FBB000008F200201FB5002002900090AE
:1048800002A8FCF7A7F801460190114842F2107304
:104890000268891A4FF47A7251430091029A416872
:1048A000511A994212D94260009AF2EE040AB2FB00
:1048B000F1F1C1F57A7100EE101A8160B8EE400A8C
:1048C00080EE201A80ED031A019901601FBD0000DF
:1048D0002C04002090F82410C90706D001684A680B
:1048E000836A22F400321A434A6090F82410890740
:1048F00006D501684A68C36A22F480321A434A60C6
:1049000090F82410490706D501684A68036B22F421
:1049100080221A434A6090F82410090706D50168DE
:104920004A68436B22F400421A434A6090F824100C
:10493000C90606D501688A68836B22F480521A433F
:104940008A6090F82410890606D501688A68C36BCE
:1049500022F400521A438A6090F82410490611D5B7
:1049600001684A68036C22F480121A434A60016CA1
:10497000B1F5801F06D101684A68436C22F4C00279
:104980001A434A6090F82410090606D501684A685F
:10499000806C22F4002202434A607047F8B500267A
:1049A0000446C666FDF736FA0546206800686FF0D3
:1049B0007E47000708D52B4600224FF40011204601
:1049C000009700F0E7F960B92068006840070AD551
:1049D0002B4600224FF480012046009700F0DAF9C0
:1049E00008B10320F8BD202084F8690084F86A002B
:1049F00084F868600020F8BD10B5806A0021A0F836
:104A00005A10A0F85210FEF7B9FC10BD70B5846AB8
:104A100094F869000025212808D1206880680006E4
:104A200004D5A4F85250204600F047F894F86A00E4
:104A3000222808D120688068400604D5A4F85A507E
:104A4000204600F02CF8E06E40F01000E0662046B2
:104A5000FEF794FC70BD10B50146806A09680968CC
:104A6000890614D40021A0F85A1001680A6822F4BB
:104A700080720A6001688A6822F001028A60016817
:104A80008A6822F040028A60202180F86A10FEF7CE
:104A900013FF10BD10B5806AFEF70FFF10BD01684F
:104AA0000A6822F490720A6001688A6822F00102A2
:104AB0008A60202180F86A10704701680A6822F035
:104AC000C0020A60202180F86910704710B5B0F864
:104AD0005C2090F86A300168222B05D0088B40F0EA
:104AE00008000883022010BD898C8368B3F5805FBD
:104AF00001D103696BB11140426D531C43651170C4
:104B0000B0F85A10491E0904090CA0F85A1007D031
:104B100015E0436D11401980416D891C4165EFE737
:104B200001680A6822F490720A6001688A6822F0BB
:104B300001028A60202180F86A10FEF7BDFE002085
:104B400010BD00002DE9F041044602688068266926
:104B5000D4F81CC0304366691025002146EA0C06D3
:104B60003043824B16680F46DFF804C206EA0C0693
:104B70000643166020684268E66822F440523243D9
:104B800042602268A0699A4201D0266A3043966842
:104B900026F4306606439660764E22687648B24226
:104BA0000DD1D0F8880010F0030006D0012839D0CC
:104BB000022835D0032838D136E0012535E06F4E84
:104BC000B2420BD1D0F8880010F00C0026D0042897
:104BD00028D0082824D00C2827D125E0684EB242DE
:104BE0000BD1D0F8880010F0300017D0102819D061
:104BF000202815D0302818D116E09A4215D1D0F8C7
:104C0000880010F4406009D0B0F5806F0AD0B0F58C
:104C1000006F05D0B0F5406F07D105E0002504E036
:104C2000022502E0042500E00825564E4FF400401E
:104C30009A4244D135B1022D07D0042D07D0082D5A
:104C400010D107E0FDF78EFC03E0304602E0FDF7EF
:104C5000A9FC98B3626802EB4201814202D8B0EB32
:104C6000023F01D901277DE000266DB1022D0ED053
:104C7000042D13D0082D1AD05FF00107424AA0F589
:104C80004071914264D9EDE7FDF76CFC08E05008F3
:104C90003E490FE00023FBF7F3FAEFE7FDF782FC54
:104CA0006268010E0302500818187141F2E75008BB
:104CB0004FF40001401846F10001EBE752E0E369D0
:104CC000834226D1092D1DD2DFE805F00508121C0C
:104CD000151C1C1C1800FDF745FC01E0FDF752FCFB
:104CE0004100606801EB5001B1FBF0F081B20AE0D5
:104CF00027496068F6E7FDF755FCF1E74FF480318E
:104D00006068EFE7012721F00F00C1F3420108437B
:104D10001EE0092DA6D2DFE805F006090C051205F4
:104D200005051E009EE7FDF71DFC0AE0FDF72AFCC5
:104D300007E0606806EB5001B1FBF0F010E0FDF712
:104D400031FC0146606801EB5001B1FBF0F080B22C
:104D50002168C86006E0616800EB5100B0FBF1F02B
:104D600080B2D0603846BDE8F0810000008000408D
:104D7000F369FFEF0038014000100240004400409A
:104D8000004800400024F400FFFC0F00000024F461
:104D90000048E8012DE9F041984617460E460446C2
:104DA000069D1DE0681C1BD02DB1FDF733F8A0EB6C
:104DB0000800A84214D92068016821F4D07101606C
:104DC0002068816821F001018160202084F8690059
:104DD00084F86A00002084F868000320BDE8F081B0
:104DE0002068C06936EA000004D00020B842D9D05B
:104DF0000020F3E70120F9E7124910B50868C269FD
:104E0000D20619D5102202620868016821F010014B
:104E100001600D48006878B10C4C00216160211DD3
:104E200001F06AFB6068012806D1094900070860A3
:104E3000BFF34F8FBFF36F8FBDE810400148FEF7FF
:104E40009FBA000008EF0020E4010020900000203D
:104E500004ED00E0124910B50868C269D2061AD5FF
:104E6000102202620868016821F0100101600D48FB
:104E7000006880B10C4C0021A16004F1080101F030
:104E80003BFBA068012806D1084900070860BFF372
:104E90004F8FBFF36F8FBDE810400148FEF770BA27
:104EA00078EF0020CC0100209000002004ED00E00D
:104EB000124910B50868C269D2061AD510220262DA
:104EC0000868016821F0100101600D48006880B198
:104ED0000C4C0021E16004F10C0101F00DFBE068D5
:104EE000012806D1084900070860BFF34F8FBFF3C0
:104EF0006F8FBDE810400148FEF742BAE8EF00208E
:104F0000D40100209000002004ED00E0FEE7FEE761
:104F10000FB41CB50A46521ECDE9000207A9054B85
:104F20006A46069800F018F8009A002111701CBC1F
:104F30005DF814FBAD50000802E008C8121F08C15C
:104F4000002AFAD170477047002001E001C1121F0A
:104F5000002AFBD1704700002DE9FF4F89B09B4626
:104F60000446002506E025280BD05A460B999047A9
:104F7000641C6D1C20780028F5D10DB02846BDE8D2
:104F8000F08F0027B8460122474900E0074314F894
:104F9000013F203B02FA03F00842F7D120782E2887
:104FA00019D114F8010F47F004072A280ED06FF02A
:104FB0002F022078A0F1300109290CD808EB8801D4
:104FC00002EB410100EB0108641CF2E70A98641C43
:104FD00050F8048B0A9020780028CED0642808D09E
:104FE000692806D075281ED05A460B9990476D1C2B
:104FF00058E00A994FF00A0901C90A91002802DA1B
:1050000040422D2102E0390504D52B218DF82010D6
:10501000012103E0F90704D02021F7E78A4608AE12
:105020000DE00021FAE70A994FF00A0901C90A9137
:10503000F7E74946FBF767F9303106F8011D00280C
:10504000F7D1ADEB060000F12009780701D44FF04D
:105050000108C84502DDA8EB090000E000208046F9
:10506000002706E008A85A46C05D0B9990476D1CC2
:105070007F1C5745F6DB04E030205A460B999047D9
:105080006D1CB8F10001A8F10108F5DC05E016F887
:10509000010B5A460B9990476D1CB9F10001A9F11B
:1050A0000109F4DC641C65E7092801004A68002A4C
:1050B00006D00A68531C0B6010704868401E486098
:1050C0007047704700EB410230F81100528802EB44
:1050D000004000EE100A704710B502464FF6FF7010
:1050E000064C07E012F8013B4340DBB234F81330C2
:1050F00083EA1020491EF5D210BD00007C6900082B
:1051000010B502464FF6FF70064C07E052F8013B1F
:105110004340DBB234F8133083EA1020491EF5D245
:1051200010BD00007C6B000801480068406A7047B1
:1051300008F20020FCF7B2FE384800F07DFB384949
:10514000087050B13549374A002000BF32F810309E
:1051500021F81030401CA528F8DB65212F48FFF707
:10516000B1FF3148412180ED000A2C48FFF7AAFF2A
:105170002E4880ED000AFFF772FAFEF7BBFDFEF73E
:105180003FFCFEF7A9FBFEF70FFCFEF74BFEFEF718
:10519000B5FEFEF7DFFEFEF709FFFEF733FFFEF771
:1051A00065FFFEF771FEFEF719FE2148FDF70DFFC2
:1051B0002048FDF70AFF4FF4C8521F491F48FCF76B
:1051C000A1F91F480068016821F004010160002175
:1051D0001C48FCF7F7FA1C4C2068016841F02001DC
:1051E00001601A480068016841F020010160184818
:1051F0000068016841F020010160012211034FF0B5
:105200009040FCF701FE2068016841F04001016018
:10521000FEF73CFC00F02BF8FEE700008851002070
:105220006800002010020020240400202804002030
:1052300044F2002080F20020D2520020BCF2002074
:1052400024F300206CF3002008EF002078EF00200A
:10525000E8EF002001460020842900D0C81C7047D8
:1052600010B500B9012000F0D1FD002010BD10B52F
:1052700000F064FE002010BD10B501F0FDF901281A
:1052800003D0BDE8104000F053BF10BD3EB504464A
:105290000D46B0F90800FFF7DDFF02A9CDE90001D6
:1052A000208A2B4682B2D4E9001001F0A9F9012826
:1052B00001D000203EBD02983EBD00002DE9F04126
:1052C000184C0F460546E6682068001D00F0AAFC51
:1052D00038B9206890F82C1001208840216981435A
:1052E0002161681C07D137B12168BDE8F0410E4843
:1052F000091D00F0E2BC20683544B54245602168D4
:1053000005D2206CBDE8F041091D00F0BEBCE06B89
:10531000091D00F0BAFCA06A854200D2A562BDE872
:10532000F081000024000020385100202DE9F041D8
:10533000054600F0CFFC2E4CA068401CA060206801
:105340002C4F10B1606940B32DE02560A0680128A2
:1053500029D1002606EB860007EB800000F087FCD1
:10536000761C072EF6D323488C3000F080FC2148B1
:10537000A03000F07CFC1F48B43000F078FC1D48E1
:10538000C83000F074FC1B48DC3000F070FC194899
:105390008C30E0631430206405E02068E96AC06A5C
:1053A000884200D82560606A401C6062E96A01207A
:1053B000226988401043206101EB810007EB8000E7
:1053C000291D00F07AFC00F0A5FC606900280CD0D3
:1053D0002068E96AC06A884207D207494FF08050C6
:1053E0000860BFF34F8FBFF36F8FBDE8F0810000FF
:1053F000240000205C50002004ED00E070B5114E48
:10540000114C17E000F0D0FD3068B8B101F02CFA73
:1054100000F060FCF068C568281D00F003FCA0687F
:10542000401EA0606068401E606000F073FC28466B
:1054300000F055F860680028E4D170BD01F014FA5E
:10544000F8E70000245100202400002030B4026C52
:105450000B46002A0BD0C1681144C1604468A142C8
:1054600001D30168C16030BC1846FAF73ABF30BCBE
:1054700070472DE9F041856B174604460026026C03
:1054800082B1C7B1E068FAF72CFFE168206C091A15
:10549000E1602268914202D26168081AE060022F3E
:1054A00016D017E02068A8B9606801F057F90646E1
:1054B000002060600EE0A068FAF713FF216CA0687E
:1054C0000844A0606168884204D32068A06001E0BD
:1054D00005B16D1E6D1CA5633046BDE8F08110B5A9
:1054E0000446006B00F02AFC2046BDE8104000F0A6
:1054F00025BC000010484FF49841420706D0C01D5B
:105500000D4920F00700411AC1F598410B4A0023CC
:105510000144C2E900030839103A21F00701116083
:105520004B600B600B1AC0E9001393604FF0004012
:105530005360D060704700005C0400201C00002015
:10554000084C4FF08056084DFFF758FF206801289F
:1055500004D92E60BFF34F8FBFF36F8F00F074FB41
:10556000F2E700005C50002004ED00E02DE9F04778
:105570009A46DDE9098481466FF00303206B03EB53
:1055800082021044089D20F00706700707D05020C3
:1055900080F31188BFF34F8FBFF36F8FFEE723189F
:1055A0000A5C83F834200A5C12B1401C1028F6D340
:1055B000002784F84370072D00D30625E562C4E96F
:1055C0001157201D00F05EFB04F1180000F05AFB9B
:1055D0002461C5F107006462A061E764276584F86F
:1055E000547052464946304600F00EF92060B8F13A
:1055F000000F01D0C8F80040BDE8F08730B5114970
:1056000000E011460A688242FBD34B685C18844272
:1056100003D1406818444860084643681C18944207
:1056200009D1084C103C2468A24209D052681A449F
:1056300042600A6812680260814200D0086030BD92
:105640000460F9E71C00002010B5044600F042FB9E
:10565000A06B28B15FF0000400F05CFB204610BD99
:105660000124F9E70648C16B096829B1C16BC96813
:10567000C9684968816270474FF0FF31FAE700005E
:105680002400002008484068401C4FF0500080F380
:10569000118804D0BFF34F8FBFF36F8FFEE7BFF3C6
:1056A0004F8FBFF36F8FFEE7000000202DE9F04120
:1056B000044600F00FFB94F9455004F1240609E07C
:1056C000606A48B1304601F095F808B100F0C4FBBB
:1056D0006D1E6DB2002DF3DC4FF0FF3684F845608F
:1056E00000F018FB00F0F6FA94F9445004F11007AA
:1056F00009E0206948B1384601F07CF808B100F0B3
:10570000ABFB6D1E6DB2002DF3DC84F84460BDE888
:10571000F04100F0FFBA00002DE9F04105460027F6
:1057200000F042FC314E306808B9FFF7E3FEF06844
:1057300005424BD1C5B3083568070ED005F0070008
:10574000C0F108000544680707D0502080F3118895
:10575000BFF34F8FBFF36F8FFEE72DB370688542A5
:1057600034D82248103001460C6801E020460C462F
:105770006168A94202D221680029F7D131688C42C0
:1057800024D007682168016060680837411B102930
:105790000FD96019420708D0502080F31188BFF359
:1057A0004F8FBFF36F8FFEE710E041606560FFF73A
:1057B00025FF61687068401A7060B268904200D23C
:1057C000B060F06801430020C4E9000101F04CF82A
:1057D000780707D0502080F31188BFF34F8FBFF3B5
:1057E0006F8FFEE73846BDE8F08100000C00002016
:1057F0000449086818B10868826C521C8264086801
:10580000704700002400002010B5031F4FF0807483
:105810001C601B1F21F001011960191F044B0B6054
:1058200014390A60091F6FF0020244380A6010BD83
:10583000855600080068704770B5D5B00546002051
:10584000214A53906C46549052F8301024F81010AE
:10585000401CA628F8DBBDF84A014FF4A57653900A
:1058600031462046FFF738FC5490DDE95301884269
:1058700008D1002034F8101025F81010401CA5287D
:10588000F8DB1CE01149002251F8320024F8120024
:10589000521CA62AF8DBBDF84A01539031466846EF
:1058A000FFF71AFC5490DDE9530188420AD1002029
:1058B00034F8101025F81010401CA528F8DB002043
:1058C00055B070BD0120FBE7002003080028030845
:1058D00000B589B00349009101466846FDF786F995
:1058E00009B000BD0028004030B589B00546074822
:1058F0000C460090FCF7DAFB224629466846FDF785
:105900007AF9FCF7CBFB09B030BD0000002800405D
:1059100070B5402813D2302911D20B4B012401F06D
:1059200007051E79AC40094BC90800EB81100EB188
:1059300032B101E0012A03D0195CA143195470BDB2
:10594000195C2143FAE700004C04002080F300209A
:1059500010B5074A00214FF4C07330B1FF245454EE
:10596000491C89B29942F8D310BD0024F7E7000022
:1059700080F3002070B50122414D94032146284652
:10598000FCF742FA0A20FCF791F80022214628464B
:10599000FCF73AFA0A20FCF789F80122214628464A
:1059A000FCF732FA6420FCF781F8AE2000F0FCF836
:1059B000A82000F0F9F83F2000F0F6F8D32000F01E
:1059C000F3F8002000F0F0F8402000F0EDF8A020FF
:1059D00000F0EAF8C02000F0E7F8DA2000F0E4F880
:1059E000122000F0E1F87F2000F0DEF8A42000F0A3
:1059F000DBF8A02000F0D8F8C02000F0D5F8202077
:105A000000F0D2F8002000F0CFF8D52000F0CCF85C
:105A1000802000F0C9F88D2000F0C6F8142000F0B6
:105A2000C3F8DB2000F0C0F8202000F0BDF8D9203A
:105A300000F0BAF8F12000F0B7F8212000F0B4F837
:105A4000202000F0B1F85F2000F0AEF8202000F038
:105A5000ABF8002000F0A8F8052000F0A5F8AF2072
:105A600000F0A2F80020FFF773FF00F013F80548DC
:105A700000210180418001214171084670BD000074
:105A8000000400484C040020014A108051807047F7
:105A90004C0400202DE9F04700244FF40065DFF8A6
:105AA0005480DFF854904FF090466F004FF47A7AAC
:105AB000012229463046FCF7A7F900223946404624
:105AC000FCF7A2F909EB8411534640220B48FDF77D
:105AD00013F9002229463046FCF796F9012239468F
