:020000040801F1
:1000000050FA00205D0201088D5E0108D54E0108FE
:10001000415B0108B90D01088D7401080000000062
:10002000000000000000000000000000A101010825
:10003000B513010800000000F5010108076501087B
:1000400077020108770201087702010877020108A8
:100050007702010877020108770201087702010898
:10006000770201087702010877020108BD0F010835
:10007000011001080D1001081910010825100108D0
:10008000311001083D1001087702010877020108CC
:100090007702010877020108770201087702010858
:1000A0007702010819660108770201087702010842
:1000B000770201080000000000000000770201083C
:1000C0007702010877020108770201087702010828
:1000D0007702010879730108D573010831740108AA
:1000E000770201087702010800000000000000000C
:1000F0000000000000000000000000000000000000
:1001000000000000770201080000000077020108EB
:10011000000000000000000025660108416601089B
:1001200077020108770201087702010877020108C7
:10013000770201080000000000000000000000003D
:1001400077020108770201087702010877020108A7
:100150007702010877020108770201087702010897
:100160007702010877020108770201080000000009
:1001700077020108770201087702010800000000F9
:10018000770201087702010877020108DFF80CD036
:1001900000F0CCFB004800474981010850FA0020DC
:1001A0002B4B19680868B0E8F04F80F30988BFF35B
:1001B0006F8F4FF0000080F311887047000000003F
:1001C00006480068006880F3088862B661B6BFF32D
:1001D0004F8FBFF36F8F00DF00BF00BF08ED00E05F
:1001E000DFF80C00016841F470010160704700BF46
:1001F00088ED00E0EFF30980BFF36F8F144B1A68AE
:100200001EF0100F08BF20ED108A20E9F04F10609B
:1002100008B44FF0500080F31188BFF34F8FBFF345
:100220006F8F09F049F84FF0000080F3118808BC87
:1002300019680868B0E8F04F1EF0100F08BFB0EC66
:10024000108A80F30988BFF36F8F704700BF00BF2B
:1002500024000020EFF30580704700000648804727
:1002600006480047FEE7FEE7FEE7FEE7FEE7FEE79B
:10027000FEE7FEE7FEE7FEE7D16501088D01010814
:100280002DE9F05F0546002092469B4688460646CB
:10029000814640241BE0284641464746224600F05E
:1002A0005EFA53465A46C01A914110D31146184679
:1002B000224600F045FA2D1A67EB01084F46224608
:1002C0000120002100F03CFA17EB00094E41201EEE
:1002D000A4F10104DFDC484631462A464346BDE826
:1002E000F09F40EA01039B0703D009E008C9121FF1
:1002F00008C0042AFAD203E011F8013B00F8013BE0
:10030000521EF9D27047D2B201E000F8012B491E0B
:10031000FBD270470022F6E710B513460A460446A2
:100320001946FFF7F0FF204610BD2DE9FE4F80462D
:1003300081EA0300C00F0C46009021F0004123F039
:100340000045B8EB0200A94105D24046214690463F
:100350001C460B46024623F00040104347D0270DB1
:10036000C7F30A00C3F30A510290401A01904028D3
:100370006BDAC3F3130040F4801B0098924620B15F
:100380000023D2EB030A63EB0B0B01985946C0F133
:100390004002504600F0D4F906460D4650465946F4
:1003A000019A00F0ECF910EB08006141002487EAA3
:1003B000115284EAE7731A4340D0009A62B3019A5B
:1003C000012A4FEA075215DC001B61EB02014FF0D6
:1003D000004202EA0752CDE90042001C41F58011BB
:1003E00032462B4600F023FA03B0BDE8F08F4046BA
:1003F0002146F9E7001B61EB0201001C41F5801367
:1004000000185B412018A2F5001747EB030140EAF2
:10041000D570B6196D4111E06D084FEA360645EA10
:10042000C0754FEA0752001B61EB0201001C41F549
:10043000801149084FEA30000019514132462B46DD
:1004400003B0BDE8F04F00F0E3B90098012240008E
:100450000023D0EB020263EBE073009821464FEAE1
:10046000E074B8EB000061EB0401E9E783F00043BE
:100470005BE781F0004158E72DE9FE4F81EA030474
:1004800004F0004421F0004100944FF0000B23F0F1
:10049000004350EA01045ED052EA03045BD0C3F388
:1004A0000A54C1F30A552C44A4F2F3340194A0FB7E
:1004B0000254C1F3130141F48011C3F3130343F455
:1004C000801301FB024400FB034E840A970A44EAAE
:1004D000815447EA8357A4FB076802958D0A05FB00
:1004E00007854FEA932C04FB0C542705029D4FEA25
:1004F000065847EA1637B5EB08056EEB070C870E72
:10050000920E47EA811742EA8312A7FB0201B6EB7B
:100510000B0164EB00042B0D43EA0C335E1844EB33
:100520001C50DA465146E7FB0201C5F313044FEABB
:100530000B3343EA14534FEA0432019C43EA0603A7
:10054000A4F10C040294009CCDE900B400F06FF912
:1005500003B0BDE8F08F00200146F9E72DE9F04D2A
:1005600081EA030404F0004B21F0004514464FF0EB
:10057000000A23F0004150EA050220D054EA0102AB
:100580001DD0C5F30A570246C5F31303C1F3130088
:10059000C1F30A5640F4801543F48013A7EB060814
:1005A000101BD64608F2FD3873EB050002D308F1A4
:1005B000010801E092185B41B8F1000F03DA002056
:1005C0000146BDE8F08D00204FF4801106468446B8
:1005D0000EE0171B73EB050705D3121B63EB050336
:1005E00006434CEA010C49084FEA300092185B417F
:1005F00050EA0107EDD152EA030012D082EA04006A
:1006000083EA0501084305D0101BAB4106D2012245
:10061000002306E000224FF0004302E06FF00102E9
:1006200053101AEB06004CEB085110EB0A0041EB9B
:100630000B01BDE8F04D00F0EBB80EB540F23341D0
:1006400002910021CDE900110A460B4600F0EFF8B7
:1006500003B000BDC1F30A5210B5C1F3130140F25B
:10066000FF3341F480119A4201DA002010BD40F2BC
:1006700033439A42A2F2334203DC524200F06FF855
:1006800010BD904010BD00F0004230F000400AD094
:10069000C10D01F56071C0F3160042EA0151C208B4
:1006A00040071143704700200146704730B5041ED3
:1006B00071F1000404DB4FF00044404264EB01019F
:1006C000141E73F1000405DB1C464FF00043524238
:1006D00063EB04038B4208BF824230BD01F000434C
:1006E00030B421F0004150EA010206D00A0DA2F513
:1006F0006072C1F31301002A02DC30BC0020704795
:10070000440F44EAC104C100E01830BC00EBC25001
:1007100000F047B830B50B460146002020220124E6
:1007200009E021FA02F59D4205D303FA02F5491BBF
:1007300004FA02F52844151EA2F10102F1DC30BDD5
:10074000202A04DB203A00FA02F100207047914091
:10075000C2F1200320FA03F3194390407047202A86
:1007600004DB203A21FA02F00021704721FA02F35B
:10077000D040C2F120029140084319467047202A18
:1007800006DBCB17203A41FA02F043EAE07306E0B9
:1007900041FA02F3D040C2F12002914008431946C9
:1007A00070470029A8BF7047401C490008BF20F0CF
:1007B0000100704710B4B0FA80FC00FA0CF050EA67
:1007C000010404BF10BC704749B1CCF1200421FAE8
:1007D00004F411FA0CF118BF012121430843A3EBE3
:1007E0000C01CB1D4FEA00614FEA102042BF0020F0
:1007F00010BC704700EBC35010440029A4BF10BCCC
:100800007047401C490008BF20F0010010BC704731
:1008100010B5141E73F1000408DA401C41F1000108
:1008200092185B411A4301D120F0010010BD2DE95F
:10083000F04D92469B4611B1B1FA81F202E0B0FA56
:1008400080F220329046FFF77BFF04460F4640EAD5
:100850000A0041EA0B0153465A46084313D0114699
:1008600053EA010019D0C8F140025046FFF777FF64
:1008700005460E46504659464246FFF761FF08437B
:1008800005D0012004E020463946BDE8F08D002067
:10089000054346EAE0762C4337430A986305E40AA9
:1008A000A0EB08000022FD0A44EA47540A3002D5B2
:1008B00000200146E9E7010510196941DDE9084515
:1008C00000196941BDE8F04DA2E7C1F30A52C1F336
:1008D000130140F2FF3341F480119A4202DA002002
:1008E0000146704740F233439A42A2F2334202DC9F
:1008F0005242FFF734BFFFF723BF000030B5041E9C
:1009000071F1000404DB4FF00044404264EB01014C
:10091000141E73F1000405DB1C464FF000435242E5
:1009200063EB0403994208BF904230BD064C074D6B
:1009300006E0E06840F0010394E8070098471034AF
:10094000AC42F6D3FFF726FC2CBA01084CBA0108DA
:1009500070B58C1810F8015B15F0070301D110F881
:10096000013B2A1106D110F8012B03E010F8016BAE
:1009700001F8016B5B1EF9D12B0705D40023521E31
:100980000DD401F8013BFAE710F8013BCB1A921C99
:1009900003E013F8015B01F8015B521EF9D5A14297
:1009A000D8D3002070BD000070B504460068002256
:1009B000836813F00C0F50D0C3689B0105D5E36921
:1009C000012B02D1A369012B22D060290CD0206811
:1009D0008268520706D58268920703D4826842F083
:1009E000100282600C290ED020688268120706D59A
:1009F0008268920703D4826842F0200282606029F4
:100A000015D06C2911D0042502F03AFB064620E0EF
:100A10000C21134B02E09A4211D2521C0568ED439F
:100A20006D06F8D440220260D1E70C25ECE70825DA
:100A3000EAE700BF02F024FB801B052809D9A06D5E
:100A400040F01000A065E06D40F00100E06501207D
:100A500070BD206880682842ECD1002070BD000085
:100A600000340A0010B5806A816D11F0500F816D5D
:100A700004D0C90601D501F043FD10BD41F4007159
:100A8000816501680A68120715D5CA6812F4406FBB
:100A90000ED1C968890400290ADB816D21F48071B7
:100AA0008165816DC90403D4816D41F001018165C7
:100AB00001F024FD10BDC9688907ECE710B5806A14
:100AC000816D41F040018165C16D41F00401C16556
:100AD00001F016FD10BD10B5806A01F010FD10BDCB
:100AE00070B504460068816801F00301012926D130
:100AF0000168C90723D0816801F00D01012910D1D7
:100B0000816841F00201816021680320086002F0E1
:100B1000B7FA05460FE000BF02F0B2FA401B022808
:100B200009D9A06D40F01000A065E06D40F0010013
:100B3000E065012070BD20688068C007ECD100200E
:100B400070BD000070B504460068816801F00301C3
:100B5000012902D10168C90723D18168124A1142D3
:100B600010D1816841F00101816002F089FA0546E7
:100B700012E0816841F00101816002F081FA401BBE
:100B8000022809D9A06D40F01000A065E06D40F08A
:100B90000100E065012070BD20680168C943C907F4
:100BA000E7D1002070BD00003F0000802DED028BDA
:100BB00082B00020ADF800009FED108B114C124860
:100BC00001F02CFA6421104801F0D0F901210E48FF
:100BD00001F0B8F9ADF800000B4801F068FABDF873
:100BE0000000FFF72AFD53EC182BFFF745FCFFF739
:100BF00075FD2065642007F03FFBE0E75D957567B4
:100C0000EFF2803F20010020DCF300202DED028B6D
:100C100086B09FED5E0ADFF87C918DED010A8DEDC7
:100C2000000A5D4C8DED030ADFF864818DED040A46
:100C300009F5485A4FF4486B012704F580750023E5
:100C40005A1E1946E86C08F0B5FC002041464A4699
:100C500053465E4631F820C000EE10CA02EB800C0D
:100C6000B8EE400A8CED000A01EB800CBCF802C023
:100C700000EE10CA03EB800C401CB8EE400A80B2B4
:100C8000B0428CED000AE5D305AA5946414807F069
:100C9000F3F9404A33461146404807F0CBF8404A42
:100CA0003E48334611462C3007F0C4F8394A3346E3
:100CB000114601F5CA4007F0BDF801AA3146354892
:100CC00007F0DAF96A463146354807F0D5F902AB44
:100CD00003AA31462F4807F03DF902AB04AA31467A
:100CE0002C4807F080F92F4E00231A4601A9B0685E
:100CF00008F05AFD00231A466946706908F054FD51
:100D000029490598884215DD606DFFF7BCFC41EC70
:100D1000180B606CFFF7B7FC9FED241B53EC112BF5
:100D2000FFF7AAFB53EC182BFFF7C0FC02D2002000
:100D3000207000E027701848DFED1E0A803090ED2B
:100D4000030A90ED011A20EE200ADDED000A60EEA4
:100D5000200A90ED020A00EE810AD0ED000AB4EEFE
:100D6000E00AF1EE10FA02D20020A07000E0A770B5
:100D700000231A461946286D08F016FD00231A466E
:100D80001946A86D08F010FD59E7000000000000AA
:100D90002253002024850020A00000207CEA0020AF
:100DA00024B700202002002000007A45FCA9F1D2DF
:100DB0004D62503F00008039FEE70000DFF8F4800C
:100DC000DFF8F49000253D4C4FF4005A4FF4004BEF
:100DD000012651464746404602F044F968B9A07AD8
:100DE000401CC0B2A072072807D9E6732574657449
:100DF000A574E5742575A573A5725946384602F0A9
:100E000031F968B9E07A401CC0B2E072072807D90E
:100E1000E57326746574A574E5742575A573E5728C
:100E200004214F46484602F01DF968B9207B401C5A
:100E3000C0B22073072807D9E57325746674A574BA
:100E4000E5742575A573257320214FF0904002F0BD
:100E500009F968B9607B401CC0B26073072807D9E4
:100E6000E57325746574A674E5742575A5736573BB
:100E70004FF48071384602F0F5F8B0B9A07B401C01
:100E8000C0B2811EA073122906D2E5732574657461
:100E9000A574E674257507E00A2806D9E57325745C
:100EA0006574A574E5742675A573142007F0E4F93C
:100EB0008FE700000008004800040048A000002060
:100EC0002DED0C8B324D314E9FED329B9FED33ABB0
:100ED0009FED34BB9FED35DA9FED35CBA5F1800456
:100EE000B6F8B20020B1012810D0022813D02CE0AF
:100EF00095ED130A10EE100AFFF7C5FB53EC192B02
:100F0000FFF7BAFA41EC180BA06E11E094ED100A4D
:100F100084ED1C0A19E095ED130A10EE100AFFF794
:100F2000B2FB53EC192BFFF7A7FA41EC180B286919
:100F3000FFF7A9FB53EC182BFFF710FB53EC1A2B10
:100F4000FFF7F3F9FFF7CAFB2067206FFFF79BFB62
:100F500053EC1B2BFFF790FAFFF7C0FB00EE100AD3
:100F600020EE0D0A10EE100AFFF78DFB53EC1C2B40
:100F7000FFF7F4FAFFF76EFB0346002211460E4816
:100F800001F04CFD642007F077F9A9E7D851002063
:100F900020010020000000000000B03F0000000021
:100FA00000001040143BB1133BB1C33F000080452B
:100FB0006666666666660A408CF4002010B50C48CA
:100FC00001F0AAFD0B48006800280FD00A4C002150
:100FD0002160214608F098FC2068012806D10749C5
:100FE00000070860BFF34F8FBFF36F8F10BD000085
:100FF00044F40020EC0100209000002004ED00E00B
:10100000014801F089BD0000E0F20020014801F034
:1010100083BD000098F20020014801F07DBD000072
:10102000C0F10020014801F077BD000078F10020F8
:10103000014801F071BD000008F20020014801F0F4
:101040006BBD000050F2002030B590F844500124F0
:10105000AC40056C6C60046863608368102B0368A7
:1010600003D099600068C26030BD9A600068C160BA
:1010700030BD00002DED048B82B000278DF8047088
:10108000DFF814939FEDC59A44F25068DFEDC48AEF
:10109000C44E06F180059FEDC48AC44C4AF6CD3A91
:1010A0004DF6BA4B684696ED110A07F020F8BDF8E8
:1010B000000024F8020BBDF8020024F8120B30786F
:1010C0002080684696ED190A07F011F8BDF8000077
:1010D0002083BDF802006083684696ED1A0A07F087
:1010E00006F8BDF80000A083BDF80200E083684662
:1010F00096ED1B0A06F0FBFFBDF800002084BDF84A
:1011000002006084684696ED100A06F0F0FFBDF814
:10111000000024F8340FBDF802006080B078A0828F
:101120007079A4F84A00F079A4F85C00B079A4F8CA
:101130005E00B08FA4F86600684695ED140A7C3412
:1011400006F0D5FFBDF800002080BDF802006080E9
:10115000684699ED000A06F0CAFFBDF800006081FC
:10116000BDF80200A0816846B0EE490A06F0BFFF54
:10117000BDF80000E081BDF802002082684695EDD0
:10118000050A06F0B4FFBDF80000A084BDF8020017
:10119000E084684695ED1A0A06F0A9FFBDF8000044
:1011A000A086BDF80200E086684695ED170A06F0B5
:1011B0009EFFBDF80000A087BDF80200E0876846EA
:1011C00095ED180A06F093FFBDF80000A4F854004E
:1011D000BDF80200A4F85600684695ED190A06F01D
:1011E00086FFBDF80000A4F86C00BDF80200A4F86A
:1011F0006E0095ED050A404685ED060AB18DC43CAA
:10120000814210D9C94389B200EE901AB8EE600A43
:10121000C0EE080AC5ED070A00EE901AB8EE600AA3
:10122000C0EE280A0DE000EE101AB8EE400AC0EE3B
:10123000080AC5ED070A00EE901AB8EE600AC0EE83
:10124000080AC5ED170AF18D814210D9C94389B248
:1012500000EE901AB8EE600AC0EE080AC5ED080A62
:1012600000EE901AB8EE600AC0EE280A0DE000EE1B
:10127000101AB8EE400AC0EE080A00EE101AB8EED6
:10128000400AC5ED080AC0EE080AC5ED180A318EFD
:10129000814210D9C94389B200EE901AB8EE600AB3
:1012A000C0EE080AC5ED090A00EE901AB8EE600A11
:1012B000C0EE280A0DE000EE101AB8EE400AC0EEAB
:1012C000080A00EE101AB8EE400AC5ED090AC0EE91
:1012D000080AC5ED190A718E414510D9C84380B27C
:1012E00000EE900AB8EE600AC0EE080AC5ED0A0AE0
:1012F00000EE900AB8EE600AC0EE280A0DE000EE9B
:10130000101AB8EE400AC0EE080A00EE101AB8EE45
:10131000400AC5ED0A0AC0EE080AC5ED1A0AB4F87B
:10132000D61051451DD1224800235A1E1946406847
:1013300008F040F9A4F8D67007F04CFE1B4808F0FE
:1013400059F88DF80400642006F096FF07F062FE5D
:1013500007F07CFA164800231A461946406808F040
:1013600023FAB4F8D810594512D111490020A4F835
:10137000D870383131F8102024F81020401CA528EE
:10138000F8DB0A4808F036F88DF8040004F090FD08
:10139000642006F071FF85E688040020AE47E13E38
:1013A0000000C8C2A00000200000C842D8510020A0
:1013B000200200207047000086B09FED220A224ED6
:1013C0008DED020A8DED030A204D8DED040A4FF0DC
:1013D000FF384FF4486406F180070023424619465F
:1013E000706D08F0E7F8D5E91601CDE9000118495C
:1013F000224608466B6D03F06FFD154A13482346DD
:101400001146543006F016FD02AA2146104806F097
:1014100033FE05AB03AA21460D4806F09BFD05AB44
:1014200004AA21460A4806F0DEFD00231A4602A956
:10143000386908F0B9F900231A461946306E08F0E9
:10144000B3F9CAE700000000A0010020D8EA00209C
:101450002485002092B0DFF8F8910122110348465C
:1014600001F009FE07F0F4FB7B4C7A4D4FF00008C9
:1014700004F18007607A012803D0E07C012804D0C1
:1014800019E0012007F0D2FBDBE04FF48071484601
:1014900001F0E8FD01280ED1608F401C80B260870A
:1014A000032801D9A4F83A8084F8128084F81380C4
:1014B000642006F0E1FE608F10BB002007F0B6FB51
:1014C00000210A2007F04EFCD5E90012012363A099
:1014D00007F000FD1921002007F044FCA06EFFF783
:1014E000D2F8CDE900015EA2402102A806F02AF858
:1014F000D5E90012012302A807F0ECFC07F038FC44
:10150000608F012822D1002007F090FB00210520E8
:1015100007F028FCD5E90012012353A007F0DAFCFC
:101520001921002007F01EFC206CFFF7ACF8CDE974
:1015300000014BA2402102A806F004F8D5E90012F0
:10154000012302A807F0C6FC07F012FC608F0228F6
:1015500022D1002007F06AFB00210A2007F002FCDC
:10156000D5E90012012342A007F0B4FC19210020A4
:1015700007F0F8FBB869FFF786F8CDE9000138A25B
:10158000402102A805F0DEFFD5E90012012302A8E0
:1015900007F0A0FC07F0ECFB608F032853D100207C
:1015A00007F044FB0021084607F0DCFB314E012325
:1015B00031A0D6E9001207F08DFCF86DFFF763F853
:1015C000CDE900012DA2402102A805F0BBFFD6E91C
:1015D0000012012302A807F07DFC0F21002007F074
:1015E000C1FBD6E90012012326A007F073FC386E78
:1015F000FFF749F8CDE9000120A2402102A805F03B
:10160000A1FFD6E90012012302A807F063FC1E2106
:10161000002007F0A7FBD6E9001201231AA007F06B
:1016200059FC786EFFF72FF8CDE9000113A2402195
:1016300002A805F087FFD6E90012012302A807F0EF
:1016400049FC07F095FB642006F016FE12E7000047
:10165000000400488C040020A000002049435000F2
:10166000252E303366000000342D3230000000009B
:101670003438350094040020583A0000252E3031CB
:1016800066000000593A00005A3A000014490A7FE7
:101690001448012A02D00A7F032A0BD1026842F4BF
:1016A00000620260026822F400620260026842F492
:1016B000007202600A7F022A02D00A7F032A0BD13D
:1016C000026842F480520260026822F48052026092
:1016D000026842F4806202600020087770470000D0
:1016E00030F6002000200240C107054803D04169C0
:1016F00041F004014161416941F480314161704729
:10170000002002400A494A694FF4FF6393FAA3F3A9
:10171000B3FA83F322F4FF62984002434A614869B6
:1017200040F002004861486940F4803048617047E9
:1017300000200240044910B54C6944F001044C619A
:101740000260436010BD000000200240074B10B54E
:101750005C69402244F480245C6172B608C908C008
:10176000521E12F0FF02F9D162B610BD00200240F5
:1017700035490869C0438207344803D4426842F0BF
:10178000010242600A69D243120703D4426842F060
:10179000020242600A69D243D20603D4426842F090
:1017A000040242600A69D243920603D4426842F0BE
:1017B000080242600A69D243520603D4426842F0EA
:1017C000100242600A69D243120603D4426842F012
:1017D000200242600A69D243D20503D4426842F033
:1017E000400242600A69D243920503D4426842F043
:1017F000800242600A69D243520403D4426842F430
:10180000807242600A69D243120403D4426842F4EF
:10181000007242608A69D24303D4426842F4806213
:1018200042600A69D243920306D4426842F40062DD
:1018300042604FF400300861886940F000408861E0
:101840004CF2FA30086170470020024030F6002068
:1018500070B5054601F014FC0646254C08E0681CEE
:1018600006D001F00DFC801BA84201D3032070BDFF
:101870002069C043C003F2D52069C04380072AD540
:101880002069C043000726D52069C043C00622D581
:101890002069C04380061ED52069C04340061AD582
:1018A0002069C043000616D52069C043C00512D583
:1018B0002069C04380050ED52069C04340040AD585
:1018C0002069C043000406D5A069C04303D5206940
:1018D000C043800303D4FFF74BFF012070BD206994
:1018E000C043C00701D101202061002070BD00006D
:1018F000002002405C4B10B55C4A0221A3F10C00B1
:1019000006F01DFB584B594A2C3328320221A3F113
:101910000C0006F014FB5648407801283CD0D8B3A0
:1019200002286BD003287DD14F4B504A583BA03240
:101930000221A3F10C0006F002FB4B4B4B4A2C3B5F
:10194000A0320221A3F10C0006F0F9FA464B474AF7
:101950005833A0320221A3F10C0006F0F0FA424BFA
:10196000424A8433A0320221A3F10C0006F0E7FAC8
:101970003D4B3E4AB033A0320221A3F10C0006F0E9
:10198000DEFA394B394ADC33A03237480221BDE850
:101990001040D03006F0D3BA334B344A583B503263
:1019A0000221A3F10C0006F0CAFA2F4B2F4A2C3B60
:1019B00050320221A3F10C0006F0C1FA2A4B2B4A47
:1019C000583350320221A3F10C0006F0B8FA264B2E
:1019D000264A843350320221A3F10C0006F0AFFAFC
:1019E000214B224AB03350320221A3F10C0006F001
:1019F000A6FA1D4B1D4ADC335032C6E71A4B1B4A70
:101A0000583B78320221A3F10C0006F098FA164BED
:101A1000164A2C3B78320221A3F10C0006F08FFA13
:101A2000114B00E01EE0114A583378320221A3F135
:101A30000C0006F084FA0C4B0C4A843378320221F5
:101A4000A3F10C0006F07BFA074B084AB03378325A
:101A50000221A3F10C0006F072FA034B034ADC33B7
:101A6000783292E710BD000088EA0020A40300202D
:101A7000A000002010B5044607F0F6FF014614B19F
:101A800006F05CFB2060C86C10BD0068816811F036
:101A90000C0F01D001207047C16841F00041C160C6
:101AA000002070472DE9F047002590F85430066972
:101AB0002A46012B0FD04FF00109FA4C80F85490C0
:101AC0004FF4F8534FF0000A46B18E69012E05D04D
:101AD000476E0FB32EE00220BDE8F0874A68012A66
:101AE0004DD18A6A012A0AD0CE6A46B1324393FAAE
:101AF000A3F30E68B3FA83F39E40324305E093FAF2
:101B0000A3F30A68B3FA83F39A400368DE6C2640B5
:101B10001643DE64026632E0C0E918A68A6A012A2A
:101B200006D0CE6A26B132438E69761E324301E07A
:101B30008A69521E93FAA3F6B6FA86F60F79B61E94
:101B40007E434FF01F0CB61C0CFA06FC93FAA3F36D
:101B5000B3FA83F39B1E7B430E689B1C22EA0C02A4
:101B60009E401643426E521E4266036E43EA0603CF
:101B7000036604D10268D66C26401E43D664026810
:101B800093681B070ED40B6A4FF40014A3B1D368FB
:101B900094FAA4F44E6AB4FA84F423F44013A640F1
:101BA0003343D36003689A684FF0070412F00C0FB8
:101BB0004FF0380214D0D1E094FAA4F44B6AB4FA8E
:101BC00084F4A3404FF4801696FAA6F6CC69B6FAD0
:101BD00086F6B4402343D46824F440142343E0E75A
:101BE0008E6A012E05D0CE6A1EB10E6A012E31D04A
:101BF00002E00E6A012E03D0DE6826F0007602E0D5
:101C0000DE6846F00076DE600B6B012B28D003689F
:101C10001E6926F002061E610B6806680A2B2AD38D
:101C2000B76992FAA2FCBCFA8CFC0A3B03FB0CFCE1
:101C300004FA0CFC27EA0C0792FAA2F8B8FA88F822
:101C4000D1F808C003FB08F30CFA03FC47EA0C07C1
:101C5000B76128E0836D43F0200383650125D3E756
:101C6000D1E90D631E4303681F6927F4FF7747F02E
:101C700002073E43CFE7776992FAA2FCBCFA8CFCDC
:101C800003FB0CFC04FA0CFC27EA0C0792FAA2F8FE
:101C9000B8FA88F8D1F808C003FB08F30CFA03FC83
:101CA00047EA0C07776103684F69DE68D1F8108056
:101CB000C6F3C1067600B740DFF8ECC14FF0F84636
:101CC000B8F1010F51D0B8F1020F62D0B8F1030F93
:101CD00075D0B8F1040F71D01F6E96FAA6F807F010
:101CE000F84C0F68B8FA88F807FA08F7BC4503D132
:101CF0001F6E27F000471F6603685F6E96FAA6F80E
:101D000007F0F84C0F68B8FA88F807FA08F7BC45EE
:101D100003D15F6E27F000475F6603689F6E96FAF7
:101D2000A6F807F0F84C0F68B8FA88F807FA08F731
:101D3000BC4503D19F6E27F000479F660368DF6EA6
:101D400096FAA6F607F0F84C0F68B6FA86F6B74092
:101D5000BC4503D1DE6E26F00046DE6603689E6851
:101D600006F00306012E54D150E0D3F8608096FAB5
:101D7000A6F608EA0C08D1F800C0B6FA86F60CFA06
:101D800006FC4CEA070C48EA0C0848F000461E66C0
:101D9000E4E7D3F8648096FAA6F608EA0C08D1F8CE
:101DA00000C0B6FA86F60CFA06FC4CEA070C48EAC4
:101DB0000C0848F000465E66D0E700E013E0D3F878
:101DC000688096FAA6F608EA0C08D1F800C0B6FAC0
:101DD00086F60CFA06FC4CEA070C48EA0C0848F0B8
:101DE00000469E66BAE7D3F86C8096FAA6F608EA33
:101DF0000C08D1F800C0B6FA86F60CFA06FC4CEADC
:101E0000070C48EA0C0848F00046A6E71E68F607EB
:101E100066D1CE68B6F1804F07D053F8B04F0E7838
:101E200009FA06F294431C6034E053F8B07F91F84D
:101E300000C009FA0CF637431F600B680668092BCF
:101E400014D3B76992FAA2FCBCFA8CFC093B03FBE1
:101E50000CFC04FA0CF4A74392FAA2F2B2FA82F252
:101E60008C6853439C402743B76113E0776992FA2B
:101E7000A2FCBCFA8CFC5B1C03FB0CFC04FA0CF40B
:101E8000A74392FAA2F2B2FA82F28C6853439C40C2
:101E9000274377610968054A112909D012290AD018
:101EA00061B11DE00020088200F0FF030003045030
:101EB00093681B0204E09368DB0101E093685B0216
:101EC000002B0DDB03689C6804F00304012C0BD18C
:101ED0001C68E40708D0816D41F02001816501256F
:101EE00080F854A02846F7E5134C11290AD012298E
:101EF0001BD00029F4D1A342F2D1916841F48001B2
:101F00009160EDE7A342EBD1916841F4000191604B
:101F10000A490B4A0968B1FBF2F1C1EB0111C90092
:101F200000E0491E0029FCD1DAE7A342D8D191682C
:101F300041F08071E4E7000000000450A404002098
:101F400040420F00006802290CD0032907D0042961
:101F500002D0D0F880007047D0F88C007047D0F8DD
:101F600088007047D0F88400704700002DE9F041E8
:101F70000446406901260F46082805D05FF0200579
:101F800001F07EF8804614E04025F9E7781C10D077
:101F90002FB101F075F8A0EB0800B84209D9A06D87
:101FA00040F00400A065002084F854000320BDE840
:101FB000F081206800682842E8D02068016849065E
:101FC00000D40026C168C268402D01D0202302E061
:101FD0004B0401D404230360A06D40F40050A065BD
:101FE000C6B12068C36C13F0C00F13D1890211D49D
:101FF0000949914303D1C06810F4406F0AD0A06D25
:1020000020F48050A065A06DC00503D4A06D40F001
:102010000100A0650020CAE70020000210B50446B8
:102020000068816809071ED4C16C11F0C00F08D187
:10203000C068002805DBA06D40F02000A0650120ED
:1020400010BD94F8540001280DD0012084F85400EC
:102050002046FEF777FD01004FF0000005D084F820
:102060005400084610BD022010BDA26DD20504D553
:10207000E26D22F00802E26500E0E065A26D42F246
:1020800001039A4342F48052A265A26D22F48012A9
:10209000A265236860221A6084F854002068C26830
:1020A0009201DED4826842F008028260D9E710B55E
:1020B000044690F85400012808D0012084F8540008
:1020C00060212046FEF770FC10B10FE0022010BD29
:1020D0002168896849070DD42046FEF701FD28B91B
:1020E000A16D21F4885141F00101A165002184F81E
:1020F000541010BDA16D21F48051F6E72DE9F84789
:102100000026009690F85420B246012A21D04FF0C4
:10211000010980F854900468A26852077DD44A6887
:102120001F254FF4F863052A16D2276B93FAA3FCF8
:10213000BCFA8CFC02FB0CFC05FA0CF5AF4393FADD
:10214000A3F3B3FA83F30D685A4395402F432763F3
:1021500044E00220BDE8F8870A2A14D2676B93FA9C
:10216000A3FCBCFA8CFC521F02FB0CFC05FA0CF51C
:10217000AF4393FAA3F3B3FA83F30D685A43954040
:102180002F4367632AE00F2A14D2A76B93FAA3FCAC
:10219000BCFA8CFC0A3A02FB0CFC05FA0CF5AF43C6
:1021A00093FAA3F3B3FA83F30D685A4395402F4390
:1021B000A76313E0E76B93FAA3FCBCFA8CFC0F3A1D
:1021C00002FB0CFC05FA0CF5AF4393FAA3F3B3FA48
:1021D00083F30D685A4395402F43E7630568AA6867
:1021E0004FF0070412F00C0F4FF038027ED10B684D
:1021F0000A2B1BD3AF6992FAA2FCBCFA8CFC0A3BF7
:1022000003FB0CFC92FAA2F804FA0CFCB8FA88F86A
:1022100027EA0C0703FB08F300E033E1D1F808C01C
:102220000CFA03FC47EA0C07AF6117E06F6992FAFA
:10223000A2FCBCFA8CFC03FB0CFC04FA0CFC27EAA5
:102240000C0792FAA2F8B8FA88F8D1F808C003FB94
:1022500008F30CFA03FC47EA0C076F6103684F6947
:10226000DD68D1F81080C5F3C1056D00AF40DFF81F
:1022700078C24FF0F845B8F1010F53D0B8F1020F12
:1022800064D0B8F1030F77D0B8F1040F73D01F6E8C
:1022900095FAA5F807F0F84C0F68B8FA88F807FA2D
:1022A00008F7BC4503D11F6E27F000471F6603687F
:1022B0005F6E95FAA5F807F0F84C0F68B8FA88F841
:1022C00007FA08F7BC4503D15F6E27F000475F6649
:1022D00003689F6E95FAA5F807F0F84C0F68B8FAF6
:1022E00088F807FA08F7BC4505D100E013E09F6EB7
:1022F00027F000479F660368DF6E95FAA5F507F0A3
:10230000F84C0F68B5FA85F5AF40BC4503D1DD6EDA
:1023100025F00045DD6603689D6805F00305012D85
:1023200054D150E0D3F8608095FAA5F508EA0C087E
:10233000D1F800C0B5FA85F50CFA05FC4CEA070C9B
:1023400048EA0C0848F000451D66E4E7D3F86480CD
:1023500095FAA5F508EA0C08D1F800C0B5FA85F59C
:102360000CFA05FC4CEA070C48EA0C0848F000455A
:102370005D66D0E700E013E0D3F8688095FAA5F534
:1023800008EA0C08D1F800C0B5FA85F50CFA05FC8E
:102390004CEA070C48EA0C0848F000459D66BAE78D
:1023A000D3F86C8095FAA5F508EA0C08D1F800C0BE
:1023B000B5FA85F50CFA05FC4CEA070C48EA0C085E
:1023C00048F00045A6E71D68ED0760D1CD68B5F17E
:1023D000804F07D053F8B04F0D7809FA05F29443B7
:1023E0001C6034E053F8B07F91F800C009FA0CF596
:1023F0002F431F600B680568092B14D3AF6992FA4D
:10240000A2FCBCFA8CFC093B03FB0CFC04FA0CF4A8
:10241000A74392FAA2F2B2FA82F28C6853439C402C
:102420002743AF6113E06F6992FAA2FCBCFA8CFCFF
:102430005B1C03FB0CFC04FA0CF4A74392FAA2F217
:10244000B2FA82F28C6853439C4027436F6109685B
:10245000264A112903D0122904D031B117E093681C
:102460001B0204E09368DB0101E093685B02002B30
:102470000DDB03689C6804F00304012C0BD11C687D
:10248000E40708D0816D41F020018165012680F8C4
:1024900054A030465EE6164C11290AD012291CD0F1
:1024A0000029F4D1A342F2D1916841F480019160F6
:1024B000EDE7A342EBD1916841F4000191600D4931
:1024C0000D4A0968B1FBF2F1C1EB0111C90000E04E
:1024D000491E00910029FBD1D9E7A342D7D19168C9
:1024E00041F08071E3E7000000F0FF0300030450B7
:1024F00000000450A404002080841E007047704730
:1025000070470000F8B54FF0000504002E46009516
:1025100002D0A06D10B107E00120F8BD204600F008
:10252000CFF8E66584F8546020688168890003D597
:10253000816821F00051816020688168C90010D451
:10254000816841F08051816059485A490068B0FB68
:10255000F1F000EB8000400000E0401E00900028F9
:10256000FBD120688168C90008D4A16D41F0100139
:10257000A165E16D41F00101E1650125A16DC9068B
:1025800071D4816849076ED4A16D41F00201A16543
:102590004949826802F00302012A02D10068C0079B
:1025A00005D18868626820F47C1010438860E16877
:1025B000A06B4FF40053084393FAA3F3E269B3FA14
:1025C00083F3A1689A40114308434FF4803292FA92
:1025D000A2F2616AB2FA82F201FA02F21043012910
:1025E00009D14FF46022A16A92FAA2F2B2FA82F201
:1025F000491E91400843E16A012903D0226B0AB1C8
:10260000114308432268D1682C4B19400143D16023
:102610002168886810F00C0F1DD14FF4804292FAA7
:10262000A2F2A069B2FA82F29040022393FAA3F3D5
:10263000626BB3FA83F39A401043CA6844F2020310
:102640009A430243CA60E06B01280DD020680169FB
:1026500021F001010161206901282068016B21F04E
:102660000F0112D014E01BE0D4E910010843D4E9B3
:1026700012121143084321680A6940F2FD739A431C
:10268000104340F001000861E5E7226A521E114341
:102690000163A06D20F0020040F00100A06504E09D
:1026A000A06D40F01000A06501252846F8BD00008F
:1026B000A404002080841E000003045007C0F0FF23
:1026C00070B5064600681C4986B0884232D11B4866
:1026D000C16C41F40051C164C06C0B2400F4005083
:1026E0000590C02000258DE8310069464FF09040EC
:1026F00000F0F4FB01208DE831006946104800F03D
:10270000EDFB114C0F48C4E900058020A560C4E929
:102710000350400060618000A0612020C4E90705EB
:10272000204600F04DFA18B1B42108A004F008FFCB
:102730003465A66206B070BD00000450001002406F
:10274000000400480800024044F400202E2E2F53BD
:1027500072632F6164632E63000000002DE9F04175
:102760000446006817468846806840074CD494F8B1
:10277000540001280CD0012084F854002046FEF7B4
:10278000E1F905004FF0000605D084F854603CE004
:102790000220BDE8F081A06DC00404D5E06D20F0FA
:1027A0000600E06500E0E665A06D40F60161884343
:1027B00040F48070A065A06D20F48010A065216DAC
:1027C0001348C862216D13480863216D124848639D
:1027D00021681C2008602068416841F010014160B8
:1027E0002068C16841F00101C16021683B46424652
:1027F0004031206D00F044FA84F85460206881680C
:1028000041F00401816000E002252846C1E7000094
:10281000650A0108D70A0108BD0A010870470000CF
:102820002DE9F04704464079002715460E46012859
:1028300009D04FF0010984F805900220207130681A
:10284000042803D044E00220BDE8F0874FF00308DD
:102850000DBB00F015FC074605E000BF00F010FCC2
:10286000C01B01280FD82068406B0004F6D401205B
:1028700000F03EFA2168B069086416E000F000FC40
:10288000C01B012807D9206940F00800206184F8A6
:1028900004800320D8E72068406B0028EEDB01208D
:1028A00000F026FA2168B06948642068816C40F223
:1028B000FF32AA409143F269AA4011438164206823
:1028C000C16CFF22AA409143326AAA401143C164FD
:1028D0003069012808D12268916B1F20A8408143EC
:1028E0007069A840084390632268D06B0721A94013
:1028F0008843B36831681943F3681943A940014319
:10290000D163206801684FF48042AA40914301607E
:102910002268116840F6FC70A84081437068A840A6
:102920000843106020680168C022AA4091430160FA
:1029300084F804900020607186E7704770B5044603
:10294000006801684FF00405890411D5416B8904C2
:102950000ED52571216941F001012161E902416330
:102960002068016821F4805101602046FFF7E5FFEF
:1029700020680168890014D5416B890011D5257143
:10298000216941F0020121614FF00051416320684B
:10299000016821F0805101602046BDE87040FFF7DA
:1029A0003DBF70BD70B5040003D02079002510B183
:1029B00005E0012070BD6571204600F007F8022097
:1029C0002071256101202071002070BD00B50068D4
:1029D000104987B088421BD10F48816D41F00051EA
:1029E0008165806D694600F00050059010200090D0
:1029F00003200190002002904FF0904000F06EFA0A
:102A000000220521362000F011FC362000F002FCE7
:102A100007B000BD007400400010024018B5046803
:102A200000940068104421B114300090036000202D
:102A300018BD0830F9E730B54279012A12D00122D9
:102A400042710223037103681D6802FA01F42543F1
:102A50001D60002901680B6806D0C3F383430F2B68
:102A60000AD00DE0022030BDC3F383030F2B07D142
:102A70004B6843F0010302E04B6843F002034B60F4
:102A8000027100214171084630BD10B590F8252033
:102A90000021022A03D00421C163012115E002684C
:102AA000136823F00E0313600268136823F0010318
:102AB000136090F84430046C012202FA03F363605F
:102AC00080F82520002280F82420084610BD10B58B
:102AD00090F825100024022903D00421C1630124A9
:102AE00018E001680A6822F00E020A6001680A68AC
:102AF00022F001020A6090F84420036C012101FADF
:102B000002F25A6080F82510002180F82410816BB1
:102B100001B18847204610BDF0B4016C0D68016812
:102B20000C68466C042202FA06F32B420FD06307AE
:102B30000DD50B689B0603D40B6823F004030B60D0
:102B400090F844108A40016C4A60016B1BE002233C
:102B500003FA06F72F424FF0000C4FF0010216D097
:102B6000A70714D50C68A40605D40C6824F00A0441
:102B70000C6080F8252090F844108B40016C4B606D
:102B800080F824C0C16A002918D0F0BC0847082387
:102B9000B3402B4212D0230710D50B6823F00E034D
:102BA0000B6090F84410036C02FA01F15960C263A3
:102BB00080F8252080F824C0416BE4E7F0BC704722
:102BC00070B570B12B4D036814242B4A8168AB4259
:102BD00009D22A4D1D44B5FBF4F4A400C0E9102429
:102BE0000BE0012070BD234D6D421D44B5FBF4F494
:102BF000A40044641F4C083C0464022480F825406F
:102C00001C6843F6F075AC43C5682943D0E9045607
:102C10003543294385692943C5692943056A294301
:102C2000214319608168B1F5804F15D0036C0F21E5
:102C3000934202D152F8A83F02E00E4AA032136834
:102C400090F84440A1408B43136090F844304168B1
:102C500099401368194311600021C1620163416307
:102C60008163C163012280F8252080F82410084682
:102C700070BD00000804024000000240F8FFFDBFE4
:102C800070B5044690F82400002501280CD00120DE
:102C900084F8240094F825600020012E06D084F8E2
:102CA00024000225284670BD022070BD022684F84B
:102CB0002560E0632068066826F00106066020466D
:102CC000FEF7C2F9206B00282068016802D041F0AD
:102CD0000E0106E021F0040101602068016841F066
:102CE0000A0101602068016841F001010160D9E733
:102CF00070B5044600F0C4F90546601C00D0641CA1
:102D000000F0BEF9401BA042FAD370BD2DE9F84F88
:102D10000127894606468DF80070374D287801282E
:102D20000FD04CF2503A2F705046FEF791FD8DF8BF
:102D300000004FF000088DF800809DF8000018B1E9
:102D400055E00220BDE8F88F4046C5F804802B4CC2
:102D5000216889050ED5206820F400702060206865
:102D6000400505D5206820F480602060032009E03C
:102D70002F7708E02168490504D5206820F4806099
:102D80002060022028773068012808D04FF0FF31FA
:102D9000C9F80010D34640F2FA7AB76820E07068AC
:102DA000FEF7A2FC5046FEF753FD8DF80000606967
:102DB00020F00400606118E038467168FEF7A2FC5C
:102DC0005846FEF745FD8DF80000606920EA0A00CC
:102DD00060619DF8000010B1C9F8007005E07F1C2B
:102DE000D6E902010844B842E6D8FEF74FFC85F860
:102DF00000809DF80000A5E730F60020002002408A
:102E00000348416941F000414161002070470000E2
:102E1000002002402DE9FF5F254C064690462078B1
:102E20009A4601280BD0012020704CF2503B5846A6
:102E3000FEF70EFD07004FF0000904D02AE0022043
:102E400004B0BDE8F09F4846C4F80490194D2968C5
:102E5000490504D5286820F4806028600220207786
:102E600026B1012E09D0022E07D00CE0424653466F
:102E70000198FEF75FFC012612E041460198FEF73B
:102E800065FC022E0AD05846FEF7E2FC4FEA000726
:102E9000FEF7FCFB84F800903846D1E74FF480261B
:102EA0005846FEF7D5FC07466869B0436861EFE70E
:102EB00030F600200020024005484169002905DA6B
:102EC00004498160044981600020704701207047F7
:102ED0000020024023016745AB89EFCD2DE9F84F73
:102EE000DFF864B100234FF0010C4FF0030A4FF0FC
:102EF0000F090BF1040EA0E00CFA03F6324072D079
:102F00004C68022C01D0122C0ED1DC0800EB840896
:102F1000D8F820405D07EF0E09FA07F5AC430D69BC
:102F2000BD402543C8F8205007685D0091F8048033
:102F30000AFA05F408F00308A74308FA05F848EA76
:102F40000708C0F800804F68012F05D0022F03D07A
:102F5000112F01D0122F11D18768D1F80C80A7430F
:102F600008FA05F848EA0708C0F808804768B74338
:102F70000E79C6F300169E403E434660C668A643DF
:102F80008C68AC403443C4604C68E40054D52F4C8A
:102F9000256E45F001052566246E23F0030504F037
:102FA000010400942A4C2E19B4689D072F0F09FACA
:102FB00007F5AC43B0F1904F04D0264DA84203D1A1
:102FC000012512E0002510E0234DA84201D1022581
:102FD0000BE0224DA84201D1032506E0204DA84276
:102FE00002D1042501E027E00725BD402543B56057
:102FF000DBF800405D464E689443F60300D5144369
:103000002C60DEF8004075464E689443B60300D548
:1030100014432C600C4D08352C684E689443F6021E
:1030200000D514432C60084D0C352C684E68944331
:10303000B60200D514432C605B1C0A6832FA03F414
:103040007FF45AAFBDE8F88F000401400010024041
:10305000000001400004004800080048000C00483F
:10306000001000480069084000D001207047426904
:103070004A40426170470AB181617047816270477E
:103080000148006870470000A804002070B50400E3
:1030900011D021684CF6CC400860216845F25550AB
:1030A0000860D4E9000141602168A0688860FFF7EA
:1030B000E7FF054609E0012070BD00BFFFF7E0FF14
:1030C000401B302801D9032070BD2068C06800284B
:1030D000F4D120680269E1688A4201D0016102E00E
:1030E0004AF6AA210160002070BD00684AF6AA21B4
:1030F000016000207047000002480168491C01601F
:1031000070470000A804002010B5032000F0AEF8BE
:10311000002000F005F800F03DF8002010BD000090
:1031200000B5014687B00022192000F07FF8192071
:1031300000F070F81348016E41F400610166006E02
:1031400005A900F400600690684600F019FB00F045
:103150004DFB0D490D4AB0FBF1F10D48491E0260CF
:10316000416040F2E7320021C0E90321816000F0B4
:10317000F7FF10B1012007B000BD054801F055F878
:10318000F9E700000010024040420F00002C01400F
:103190009C5100201E4808B5016E41F001010166F6
:1031A000016E01F001010091816D41F08051816556
:1031B000806D00F080500090032000F057F800224E
:1031C00011466FF00B0000F031F8002211466FF04D
:1031D0000A0000F02BF8002211466FF0090000F001
:1031E00025F800221146501F00F020F80022114659
:1031F000101F00F01BF800220F21901E00F016F89F
:1032000000220F21BDE80840501E00F00FB800005A
:103210000010024000F01F0201219140400980008F
:1032200000F1E020C0F8001170470000F0B40E4B30
:103230001B680C46C3F30223C3F10705042D00D914
:103240000425191D072901D2002300E0DB1E0126F9
:1032500006FA05F1491E214099409E40761E16400F
:103260003143F0BC02F013BE0CED00E0064900F063
:10327000070208684FF6FF03184040EA0220034A9D
:1032800010430860704700000CED00E00000FA05F4
:103290001549B0F5007F0868C0F3412009D0022825
:1032A00005D0086820F4C06040F480600860002009
:1032B00070470128FBD0086820F4C06040F400701B
:1032C00008600A480A4A0068B0FBF2F03222504314
:1032D00000E0401E10B14A695205FAD44869400521
:1032E000E5D503207047000000700040A4040020D2
:1032F00040420F000248006800F4C06070470000C0
:10330000007000400248016821F48071016070473C
:10331000007000400248016841F48071016070470C
:10332000007000402DE9F84F044600270088B54D95
:103330003E46000515D5606C60B1B0F5000F04D0B5
:10334000B0F5400F2BD001270AE0E86840F4803048
:10335000E86024E00021201D02F0EAFE07001ED0F4
:103360003E46206880033AD5A86D4FF00008C000A3
:1033700009D4A86D40F08050A865A86D4FF00108F1
:1033800000F080500090DFF880A2DAF8001041F4DD
:103390008071CAF80010FFF773FE814610E0D5F87F
:1033A0008800616C20F440000843C5F88800D8E725
:1033B000FFF766FEA0EB0900022801D9032705E00C
:1033C000DAF80000C005F3D5002F7DD04FEA0706DC
:1033D000B8F1000F03D0A86D20F08050A8652078C8
:1033E000C00707D0D5F88800216A20F00300084301
:1033F000C5F888002078800707D5D5F88800616A6D
:1034000020F00C000843C5F888002078400707D555
:10341000D5F88800A16A20F030000843C5F888007C
:103420002078800607D5D5F88800E16A20F440604E
:103430000843C5F888002088800507D5D5F888009E
:10344000E16B20F440200843C5F88800208840053F
:1034500007D5D5F88800216C20F440100843C5F842
:1034600088002078400607D5D5F88800216B20F425
:1034700040500843C5F888002078000607D5D5F8E5
:103480008800616B20F440400843C5F8880020881C
:10349000C00507D5D5F88800A16B20F4403008435B
:1034A000C5F8880020884FF0006780044FF08068DE
:1034B00050D5D5F88800A16C20F040600843C5F8CD
:1034C0008800A06CB84200E005E03BD1E86840F419
:1034D0008010E8603EE0D5F8900010F4407014D001
:1034E000E16D814211D0D5F89000D5F8901020F40C
:1034F000407041F48031C5F89010D5F8901021F457
:103500008031C5F89010C5F89000C00711D0FFF7C2
:10351000B7FD074641F2883907E000BFFFF7B0FD6D
:10352000C11B494501D9032652E7D5F89000800711
:10353000F4D5D5F89000E16D20F440700843C5F84B
:10354000900045E7404505D10121201D02F0F0FD26
:1035500000B106462068000317D5D5F88800E16C55
:1035600020F040600843C5F88800E06CB84204D100
:10357000E86840F48010E86007E0404505D101218B
:10358000201D02F0D5FD00B106462068400317D586
:10359000D5F88800216D20F040600843C5F8880008
:1035A000206DB84204D1E86840F48010E86007E07C
:1035B000404505D10121201D02F0BAFD00B10646AB
:1035C0002088400411D5D5F88800616D20F0405066
:1035D0000843C5F88800606DB0F1805F05D1022115
:1035E000201D02F0A5FD00B106462088000406D586
:1035F00055F8880FA16D20F08040084328603046C0
:10360000BDE8F88F00100240007000402DE9F0473F
:10361000DFF85C8105460E46D8F8000000F0070090
:10362000B0420CD2D8F8001021F007013143C8F89D
:103630000010D8F8000000F00700B04274D12878DC
:103640004C4C800705D5A068A96820F0F00008431D
:10365000A0602878C00756D06868022818D00328D0
:1036600019D02168D0B1490500295DDAA16821F09F
:1036700003010143A160FFF703FD6968074641F2BA
:103680008830022912D003291ED0814649B335E083
:1036900021688903E8E721688901E5E78907E3E70D
:1036A000FFF7EEFCC11B494501D924E08146A06823
:1036B000C0F381000228F3D125E000BFFFF7E0FC52
:1036C000C11B494501D916E08146A068C0F38100BD
:1036D0000328F3D117E000BFFFF7D2FCC11B494517
:1036E00009D8A06810F00C0FF6D10CE0FFF7C8FC69
:1036F000C11B494502D90320BDE8F087A068C0F38B
:1037000081000128F2D1D8F80010404601F00701ED
:10371000B1420BD9016821F0070131430160006813
:1037200000F00700B04201D00120E5E7287840070B
:1037300005D5A068E96820F4E0600843A060287817
:10374000000706D5A068296920F4605040EAC1004E
:10375000A06000F05BF8A168074AC1F30311515C57
:10376000C840064908600020FFF7DAFC0020C3E7E4
:103770000020024000100240DCB80108A404002030
:103780000F2202600C4A936803F0030343609368BE
:1037900003F0F0038360936803F4E063C36092680E
:1037A0004FF4E06303EAD20202610448006800F0CB
:1037B000070008607047000000100240002002402F
:1037C0000148006870470000A4040020044805492F
:1037D00000688968044AC1F30221515CC8407047FF
:1037E000A4040020001002401CB901080448054947
:1037F00000688968044AC1F3C221515CC84070471F
:10380000A4040020001002401CB9010830B52D4965
:10381000002318468A682C4C12F00C0F4FF46105F7
:1038200014D08A68C2F38102032A04D1CA6802F064
:103830000302012A0AD08A68C2F38102012A19D040
:103840008A68C2F38102022A16D016E00A681207BB
:1038500004D4D1F89420C2F3032202E00A68C2F330
:1038600003121A4B53F822308A6812F00C0F04D15D
:10387000184602E0204600E028468A68C2F381022A
:10388000032A1DD1C868CA6800F00300C2F30212FF
:10389000521C022804D0032805D0B3FBF2F004E048
:1038A000B4FBF2F001E0B5FBF2F0CA68C968C2F3FC
:1038B00006225043C1F34161491C4900B0FBF1F0BD
:1038C00030BD0000001002400024F400ECB80108F4
:1038D00070B5104C86B01646E06C0D4640F0010005
:1038E000E064E06C694600F001000590A0150090CE
:1038F0000220019003900020029004904FF090402D
:10390000FFF7ECFAA068354320F0FE402843A060A2
:1039100006B070BD001002402DE9F843044600785F
:10392000FD4DC0065DD5A86810F00C0F0AD0A06947
:103930000028286871D040F001002860FFF7A0FB44
:10394000064654E02868800702D5A06900287DD08B
:10395000216A2868000703D5286800F0F00004E019
:10396000D5F89400F02202EA1010814216D90846D8
:1039700002F074FC002869D1286840F00800286033
:103980002868216A20F0F000084328606868E1692F
:1039900020F47F4040EA0120686015E0286840F08C
:1039A000080028602868216A20F0F0000843286099
:1039B0006868E16920F47F4040EA01206860206A7D
:1039C00002F04CFC0028D6D1FFF720FFA968D34AAB
:1039D000C1F30311515CC840D14908600020FFF7D2
:1039E0009FFB29E0FFF74CFB801B02287ED828684C
:1039F0008007F7D5286840F0080028602868216A09
:103A000020F0F000084328606868E16920F47F40F6
:103A100040EA012068600FE0FFE720F00100286025
:103A2000FFF72EFB064604E0FFF72AFB801B022867
:103A3000DCD828688007F7D42078C0074AD0A86867
:103A4000C0F3810002281FD0A86800E098E0C0F30E
:103A50008100032803D1E868C043800714D0606860
:103A6000B0F5803F17D0B0F5A02F286817D020F40C
:103A700080302860286820F4802028606068E0B1E9
:103A8000FFF7FEFA064614E02868800322D5606836
:103A9000002875D01EE0286840F48030EDE740F43F
:103AA00080202860F7E700BFFFF7EAFA801B642850
:103AB0009CD828688003F7D50CE0FFF7E1FA0646AA
:103AC00005E000BFFFF7DCFA801B64288ED8286869
:103AD0008003F7D42078800742D5A868C0F381001E
:103AE000012816D0A868C0F3810000E0CEE00328CA
:103AF00004D1E86800F0030002280AD0E06800283A
:103B000028681DD040F480702860FFF7B9FA064697
:103B10000BE0286840050BD5E0680028B9D007E025
:103B2000FFF7AEFA801B0228C2D828684005F7D5F7
:103B30006868217C20F0F85040EA016068600FE07E
:103B400020F480702860FFF79BFA064605E000BF6E
:103B5000FFF796FA801B0228AAD828684005F7D4F8
:103B60002078000729D560690028D5F8940013D083
:103B700040F00100C5F89400FFF782FA064606E01F
:103B80001DE100BFFFF77CFA801B02287ED8D5F824
:103B900094008007F6D510E020F00100C5F89400ED
:103BA000FFF76EFA064604E0FFF76AFA801B022868
:103BB0006CD8D5F894008007F6D42078400761D5FA
:103BC000A86D0026C00008D4A86D40F08050A865FC
:103BD000A86D012600F08050009052480168C90588
:103BE00011D40168804641F480710160FFF748FA02
:103BF000074604E0FFF744FAC01B022846D8D8F86D
:103C00000000C005F6D5A068012815D00528D5F814
:103C1000900016D020F00100C5F89000D5F8900073
:103C200020F00400C5F89000A06841F28838B8B1CF
:103C3000FFF726FA07460EE0D5F8900040F00100A5
:103C4000F0E740F00400C5F89000F5E7FFF718FA38
:103C5000C11B41451AD8D5F890008007F6D50CE075
:103C6000FFF70EFA074604E0FFF70AFAC11B4145C9
:103C70000CD8D5F890008007F6D41EB1A86D20F0BE
:103C80008050A8652078800629D500E089E0606A28
:103C90000028D5F8980011D040F00100C5F8980030
:103CA000FFF7EEF9064604E0FFF7EAF9801B022869
:103CB0007DD8D5F898008007F6D510E020F00100F7
:103CC000C5F89800FFF7DCF9064604E0FFF7D8F9DD
:103CD000801B02286BD8D5F898008007F6D4A06A1C
:103CE000C8B1A968C1F38101032968D002282868F6
:103CF00020F08070286019D02868000103D4E8689B
:103D000020F00300E860E86807490840E860FFF732
:103D1000B7F904464EE050E000100240DCB801085C
:103D2000A404002000700040FFFFEEFEFFF7A8F99A
:103D3000064604E0FFF7A4F9801B022837D828685C
:103D40008001F7D4206B54F82C1F00011038084371
:103D5000218A1C4A490802EB4151A26841EA02212A
:103D60000843217D4FF07E42490802EB4161084340
:103D7000217B40EAC160E860286840F080702860DC
:103D8000E86840F08070E860FFF77AF9044604E0E4
:103D9000FFF776F9001B022809D828688001F7D5BB
:103DA0000BE004E0FFF76CF9001B022802D90320A6
:103DB000BDE8F88328688001F4D40020F8E70120EA
:103DC000F6E700000000E0FF2DE9F0411D46164631
:103DD0000F46040003D094F8690018B108E00120F0
:103DE000BDE8F081002084F86800204600F0ECFC7B
:103DF000242084F869002068016821F00101016035
:103E0000204603F05FF90128EAD0606A10B120462D
:103E100003F004F82068816841F4804181602068E3
:103E2000816821F4004139438160700540EA054111
:103E300020680268064B1A400A4302602068016845
:103E400041F0010101602046BDE8F04103F04AB8AD
:103E5000FFFF00FC0068503040F8212070472DE93A
:103E6000F041040005D00025A56294F85D0018B16A
:103E700007E00120BDE8F08184F85C50204600F0A6
:103E800045F8022384F85D302068016821F0400184
:103E90000160E0684FF4E066B04201D9002101E022
:103EA0004FF48051B0F5706F02D0B04200D0A562DF
:103EB000276B012227B9B04201D9236300E02263B6
:103EC000D4E901031843D4E9043633431843238B60
:103ED00003F400731843E3691843236A1843A36A81
:103EE000184323681860636B606AA6691843042747
:103EF000E36807EA164633431843084321684860DD
:103F0000256684F85D200020B4E7000000B5006855
:103F10000E4987B0884217D10D48816D41F4804128
:103F20008165806D694600F4804005904FF4204023
:103F300000900220019000200290032003900520B1
:103F400004900448FEF7CAFF07B000BD00380040E7
:103F500000100240000400482DE9F84F044690F894
:103F60005C000026984617460D4601280DD04FF0FC
:103F7000010A84F85CA0FFF783F8834694F85D009B
:103F8000B146012804D002269BE00220BDE8F88F4C
:103F9000002D73D0002F71D0032084F85D00C4F889
:103FA0006090A563A787E787C4F84090A4F8449081
:103FB000A4F84690C4F85090C4F84C90A068B0F5AE
:103FC000004F04D12068016841F4804101602068FD
:103FD0000168490603D4016841F040010160E068CE
:103FE000B0F5E06F606823D910B1E08F01281BD1D4
:103FF000216835F8020BC86006E0206881688907EF
:1040000006D535F8021BC160E08F401EE0870BE04B
:10401000B8F1000F3FD0B8F1FF3F05D0FFF730F8FF
:10402000A0EB0B01414536D2E08F0028E5D137E007
:1040300010B1E08F012830D1E08F012804D9216828
:1040400035F8020BC86010E0216815F8010B087301
:1040500011E0E08721E02068816889070FD5E18FB2
:10406000012905D935F8021BC160E08F801EF0E7F9
:1040700015F8011B0173E08F401EEAE720E0B8F15C
:10408000000F08D0B8F1FF3F07D0FEF7F9FFA0EB13
:104090000B01414501D3032613E0E08F0028DAD15C
:1040A0005A464146204602F067F908B120202066B2
:1040B000A06818B92068C16880680090206E00B1BF
:1040C000012684F85DA084F85C9030465EE74FF0EE
:1040D000E0210428086903D020F00400086170473B
:1040E00040F00400FAE710B5401EB0F1807F01D324
:1040F000012010BD4FF0E02460610F21601701F036
:10410000C6FE0020A06107202061002010BD70477E
:104110007047000030B590F83820012A1CD00122E9
:1041200080F8382003685A689C680C4DAB4203D174
:1041300022F470054A682A4322F070050A688968EB
:104140002A4324F0800421435A60026891600021D0
:1041500080F83810084630BD022030BD002C0140E8
:1041600010B5040003D094F8390010B107E0012025
:1041700010BD002084F83800204600F00DF8022021
:1041800084F83900211D206802F060FA012084F8CB
:104190003900002010BD000008B501681948B1F1D0
:1041A000804F11D0184A914217D1816D41F0100112
:1041B0008165806D002200F01000009005213620FE
:1041C000FFF734F8362019E0816D41F00101816577
:1041D000806D00F00100009008BD0C4A9142FBD1B7
:1041E000816D41F020018165806D002200F020008A
:1041F000009011463720FFF719F83720BDE8084036
:10420000FFF708B800100240001000400014004002
:10421000022180F8391001680A6842F001020A6040
:10422000012180F83910002070470168CA6842F007
:104230000102CA600068016841F0010101600020CC
:104240007047000070B5044690F83800012817D078
:10425000012584F83850022084F8390022689068DB
:10426000364E304020F47F4090600868502839D0A6
:104270000DDC20285BD005DC98B3102843D153E037
:10428000022070BD302855D040283CD141E0602844
:1042900030D070280CD0B0F5805F03D0B0F5005F4F
:1042A00031D112E020688168244A7032114016E052
:1042B000CB68D1E90121206802F0FAF92168886809
:1042C000304040F0770088601DE0CB68D1E90121E3
:1042D000206802F0EDF92068816841F48041816036
:1042E00011E01EE0CA684968206802F0F3F9502125
:1042F000206806E0CA684968206802F0FCF960217D
:10430000206802F0DFF984F83950002084F8380082
:1043100070BDCA684968206802F0DCF94021206855
:10432000EFE700212068ECE710212068E9E7202171
:104330002068E6E730212068E3E7000088FFFEFF01
:10434000704770B50446006801694FF00005C94325
:10435000890715D4C168C943890711D4E91E0161D1
:1043600001202076206880698007204602D0FFF770
:10437000E7FF04E000F098F8204600F096F8257674
:1043800020680169C943490717D4C168C94349076F
:1043900013D46FF004010161022020762068806947
:1043A00010F4407F204602D0FFF7CAFF04E000F07F
:1043B0007BF8204600F079F8257620680169C9432A
:1043C000090716D4C168C943090712D46FF0080160
:1043D0000161042020762068C0698007204602D051
:1043E000FFF7AEFF04E000F05FF8204600F05DF854
:1043F000257620680169C943C90617D4C168C94335
:10440000C90613D46FF010010161082020762068DE
:10441000C06910F4407F204602D0FFF791FF04E00E
:1044200000F042F8204600F040F825762068016947
:10443000C943C90708D1C168C943C90704D1891E46
:104440000161204600F032F820680169C94309067D
:1044500009D4C168C943090605D46FF08001016120
:104460002046FFF754FE20680169C943490609D474
:10447000C168C943490605D46FF040010161204677
:1044800000F070F820680169C94389060BD4C1683F
:10449000C943890607D46FF0200101612046BDE8B9
:1044A0007040FFF735BE70BD7047704770B5044669
:1044B00000682549884201D1FEF71EFE2349206885
:1044C000884236D1224C206A616A401C41F10001C9
:1044D00020626162216A606A0A3970F1000013D3B8
:1044E000A1680020A161E061A060206260621949BA
:1044F0000A78012A1ED0E0606188491C61806188C9
:104500000F2901D914490870A269E1696425A2FB49
:10451000050601FB0561002302FB03110F4AFBF7AF
:10452000AFFE64230022D0EB030062EB01022061A6
:10453000626170BDE2680A2A03D9087008494870B0
:10454000DAE7521CE260D7E7002C0140001400407B
:1045500068000020B5000020A5000020AEA01400D7
:10456000D3EC00207047704710B5044690F86900FE
:1045700021280ED12068816809060AD5816821F0BA
:1045800080018160206E08B1FEF77FFA204602F0BC
:1045900055FD94F86A0022280ED1206881684906EA
:1045A0000AD5816821F040018160606E08B1FEF794
:1045B0006CFA204602F034FD002010BD7047000068
:1045C00070B501680446C8690A6810F00F0508D183
:1045D000830606D5930604D52046BDE8704002F058
:1045E00036BD8B68002D66D003F0010502F490768D
:1045F0002E4360D0C60707D0D60505D501260E622A
:10460000E16E41F00101E166810708D5D90706D0C6
:10461000266802213162E16E41F00401E166410742
:1046200008D5D90706D0236804211962E16E41F04C
:104630000201E16601070AD502F02001294306D0F4
:10464000236808211962E16E41F00801E166E16E1C
:10465000002929D0800604D5900602D5204602F014
:10466000F6FCE06E000703D42068806840061CD585
:10467000204602F0D5FC20688168490611D5816882
:1046800021F040018160606E58B133498163606EF2
:10469000FEF71DFA002807D0606E816BBDE8704000
:1046A00008472046FFF78AFF70BD2046FFF786FFC8
:1046B0000020E06670BD8D68C6024FF020030CD567
:1046C0006D020AD5D803086284F8693084F86A302C
:1046D0002046BDE87040FFF746BF05062ED51506FB
:1046E0002CD594F869002128E4D1B4F8520020B107
:1046F000A068B0F5805F0AD00BE0086820F0800069
:1047000008602068016841F04001016070BD2069C7
:1047100058B1E06C411CE16421680078A1F82800E0
:1047200034F8520F401E208070BDE06C0088C0F34A
:1047300008000885E06C801CE064F1E74006F3D5D2
:104740005006F1D5086820F04000086084F8693010
:10475000204600F017FA70BD416F010810B5040043
:1047600003D094F8690010B107E0012010BD0020CB
:1047700084F86800204600F027F8242084F86900B7
:104780002068016821F001010160204602F09AFCD6
:104790000128EBD0606A10B1204602F03FFB206890
:1047A000416821F4904141602068816821F02A012C
:1047B00081602068016841F0010101602046BDE888
:1047C000104002F08FBB00002DE9F04F0446DFF8E7
:1047D0006882D0F800C0994B0320072100250226EB
:1047E000802787B04FF001094FF090424FF0100A38
:1047F000C44554D1D3F860C04CF4804CC3F860C0B9
:104800001B6E03F480430593CDE9030143028DE859
:10481000480269461046FEF761FBDFF828828849A6
:104820004046C8F80010C0E90165C0E90357C8F860
:104830001450C8F81850C8F81C50C8F82050FEF79B
:10484000BFF918B1AE2180A002F07AFEC4F86480EE
:10485000C8F82840DFF8EC81794908F1480840465B
:104860001439C0E90357C8F81450C8F81850C8F8EC
:104870001C5088E84204C8F82050FEF7A1F918B18E
:10488000BF2171A002F05CFEC4F860800022052107
:104890002520C8F82840FEF7C9FC252062E0DFF893
:1048A000B881C44563D1D3F858C04CF4003CC3F878
:1048B00058C09B6D884603F400330096CDE904830D
:1048C00003900025CDE90165834669464FF090408D
:1048D000FEF704FB0C20CDF810808DE8410A6946F4
:1048E0004FF09040FEF7FAFADFF85881544908F18A
:1048F000900814314046C8F80010C0E90165C0E9CD
:104900000357C8F81450C8F81850C8F81C50C8F815
:104910002050FEF755F918B1F3214BA002F010FE1C
:10492000484D4748C4F86480D8352830C8F8284036
:1049300085E841040020C5E903076861A861E861D2
:1049400028622846FEF73CF920B14FF482713EA060
:1049500002F0F6FD2566002205212620AC62FEF756
:1049600065FC2620FEF756FC07B0BDE8F08F3B4AF9
:104970009445F9D19A6D42F480229A659A6D8B46DE
:1049800002F480220096CDE904B20390CDE90165DE
:10499000804669463248FEF7A1FA4FF440608DE840
:1049A0004102CDE9038B69462D48FEF797FA244969
:1049B000DFF8B08028394046C8F80010C0E901652A
:1049C000C0E90357C8F81450C8F81850C8F81C506C
:1049D000C8F82050FEF7F4F820B14FF49C711AA0EB
:1049E00002F0AEFDC4F86480C8F82840DFF8748097
:1049F000134908F1480840463C39C0E90357C8F854
:104A00001450C8F81850C8F81C5088E84204C8F878
:104A10002050FEF7D5F820B140F249110AA002F06B
:104A20008FFDC4F86080002205212720C8F82840A7
:104A3000FEF7FCFB272095E70038014000100240FC
:104A40005800024078F100202E2E2F5372632F75EC
:104A5000736172742E6300000044004000480040FF
:104A60000004004898F2002070B5044690F86A00EF
:104A7000202839D1A9B3A2B394F86800012833D013
:104A8000012084F868006165A4F858200025E566D7
:104A9000222084F86A00616E14481346C862616E71
:104AA00013480863616E13484863606E8563666DE2
:104AB000216832462431606EFEF7E2F884F86850CF
:104AC0002068016841F4807101602068816841F0CC
:104AD000010181602068816841F04001816000200F
:104AE00070BDFFE70120FBE70220F9E79F6F010897
:104AF000DD6F0108556F01087047704770B50446B7
:104B000090F86900202834D181B37AB394F8680012
:104B100001282ED0012084F8680044F84C1FA280A0
:104B2000E2800025256221206077616912481346E2
:104B3000C862616911480863616911484863606926
:104B4000856354F84C6C216806F128026069FEF711
:104B500097F854F84C1C40200862257754F84C0C08
:104B6000816841F080018160002070BDFFE7012075
:104B7000FBE70220F9E70000E76F01081770010862
:104B8000556F01087047704708B500208DF8000088
:104B9000124D134C4FF0FF38102605F1800700230B
:104BA00042461946E86F04F005FD20680662206859
:104BB000016841F0100101600948FFF7D5FC10229F
:104BC00008490748FFF750FF8DF8000000231A46F8
:104BD0001946386804F0E8FDE1E70000A001002074
:104BE00028F0002062EE00208AB000208DF8080036
:104BF000ADF80800ADF80000ADF80400ADF80C0009
:104C0000ADF81000ADF81400DFF8B492AD4CDFF849
:104C1000B882A9F5C07A4FF0030B04F110074FF4E6
:104C200080554FF0904600235A1E1946D9F80000CF
:104C300004F0C0FC002229463046FEF71CFA14207E
:104C400003F01AFB2178BAF8360081427ED10621A2
:104C50009C4803F05FFAADF80C00A079E17900EB15
:104C60000120ADF81000607810280BD10B21954879
:104C700003F050FAADF80C00E07A217B00EB012044
:104C8000ADF81000BDF80C00BDF81010884260D1DE
:104C90002078387062787A70E078A17800EB012093
:104CA000ADF804006079217900EB0120ADF8000037
:104CB000BDF80400BDF800100844ADF81400BDF8BC
:104CC00000004000B870BDF80400A5281ED9032AD2
:104CD00002D0042A02D003E0832000E08420787010
:104CE0000220B87077480321103003F013FAADF8B2
:104CF0000800BDF80800F870BDF808007149000A06
:104D00003871052210317148FFF7F8FE60780328EA
:104D100025D0042823D006287CD0102879D08120E3
:104D200078700120B87067480321103003F0F2F961
:104D3000ADF80800BDF80800F870BDF80800000ADA
:104D4000387105225F496248103100E001E0FFF749
:104D5000D5FEBDF8000004287ED2C820A7E0BDF82B
:104D600004007D2836D2BDF8040000210DE000BF0C
:104D700038F8102007EB410C130A401C8CF8033064
:104D8000491C8CF8042080B289B2BDF814209042EE
:104D9000EED300BFBDF800104A480BEB41011030C4
:104DA00003F0B8F9ADF80800BDF80800BDF8001030
:104DB00007EB4101C870BDF80800BDF80010000AFB
:104DC00007EB41010871BDF80010052000EB410020
:104DD00082B2B7E700200146424614E0BDF8043035
:104DE00007EB410C034432F813301B0A8CF80330F4
:104DF000BDF804300344401C12F81330491C8CF8F1
:104E0000043080B289B2BDF800309842E6D3C1E7E1
:104E100000E010E094F805C02379BDF804200CEB05
:104E2000032028F81200A078B870E078F8703B7181
:104E300087F805C01AE0207AE179BDF8042000EB7C
:104E4000012128F81210A17A627A01EB0221BDF843
:104E5000042008EB420000E024E04180A078B87014
:104E6000E078F870207938716079787115480621FA
:104E7000103003F04FF9ADF80800BDF80800B87124
:104E8000BDF808000F49000AF871082210311048D7
:104E9000FFF734FEBDF8000000EB8000800003F057
:104EA000EBF956E7BDF8000000EB8000800003F04E
:104EB000E3F9012229463046FEF7DDF8B3E60000AB
:104EC0002002002062EE0020D851002098F000203F
:104ED00028F00020FEE7000010B5D0ED000A9FED9D
:104EE0000E0A012380EE801A80ED001A10E000BF48
:104EF00000EB830494ED001AC1EE000A14ED011AD0
:104F000001EB83045B1C9BB270EE810AC4ED000AC6
:104F10009342EDD310BD0000CDCCCC414F4D504C51
:104F2000687A01282AD040212046FEF79BF890B3EA
:104F3000002680212046FEF795F868B30020064041
:104F4000287850B30020A97D012900D00021084015
:104F5000A97849B30022E97D012900D000210A4047
:104F60006979104311B30022297E012900D0002164
:104F70000A40104306421BD000221AE010212046AE
:104F8000FEF775F8C82003F077F920212046FEF7D8
:104F90006EF8C8205EE001E002E003E00126C8E709
:104FA0000120CCE70120CEE70122D4E70122DBE794
:104FB000012210212046FEF75EF800222021204623
:104FC000FEF759F840212046FEF74CF8012820D181
:104FD00080212046FEF746F8D8B90122102120464C
:104FE000FEF749F8012220212046FEF744F84FF44D
:104FF000FA76304603F040F9002210212046FEF7F1
:105000003AF8002220212046FEF735F8304603F01A
:1050100033F980212046FEF725F8012819D1002216
:1050200010212046FEF727F8012220212046FEF716
:1050300022F8C82003F020F9002210212046FEF7B4
:105040001AF8002220212046FEF715F8C82003F0A8
:1050500013F9642003F010F962E70000A0000020BB
:105060000004004870B52E4896B02C490024C0E9D1
:105070000014012584600421C0E90345C0E905143A
:105080000226C0E907464FF450714462C0E90A5154
:10509000A9020163C0E90D54C463FDF733FA18B1E6
:1050A000592120A002F04CFA1D48FCF7EEFC0B2021
:1050B0000F90CDE91054129413940FA9184814942A
:1050C000FDF71CF818B16A2116A002F039FA0C207D
:1050D000CDE90F060FA91248FDF710F818B173219A
:1050E00010A002F02DFA0F200090CDE90154039496
:1050F0000494CDE9054507940894CDE909450B943E
:10510000694607480C94FCF7CDFC002803D08721A2
:1051100004A002F015FA16B070BD000000000450A3
:10512000DCF300202E2E2F5372632F6164632E63F5
:105130000000000000B5104989B00E48086008461C
:10514000FDF730FC18B147210CA002F0F9F900205E
:105150000090019002900390024604906946064830
:10516000FDF75EFB002803D0532104A002F0E8F90C
:1051700009B000BD007400408CF400202E2E2F5387
:1051800072632F6461632E6300000000214808B53C
:10519000816C41F001018164806C002200F001000B
:1051A000009005210B20FEF741F80B20FEF732F8A6
:1051B000002205210C20FEF739F80C20FEF72AF812
:1051C000002205210D20FEF731F80D20FEF722F810
:1051D000002211460E20FEF729F80E20FEF71AF8DD
:1051E000002211460F20FEF721F80F20FEF712F8DB
:1051F000002205211020FEF719F81020FEF70AF80A
:10520000002205211120FEF711F8BDE80840112009
:10521000FEF700B80010024030B5EFB000220421C4
:10522000102004F0A3F9ED4D00220421A860102005
:1052300004F09CF9E86000220421102004F096F9A3
:10524000286100220421102004F090F968610022F6
:105250000421102004F08AF9A86100220421102002
:1052600004F084F9E86103220021012004F07EF9B2
:10527000A5F18004606420B100231A46194604F0A9
:1052800093FA03220021012004F070F9A06420B1F8
:1052900000231A46194604F087FA03220021012050
:1052A00004F064F9E06420B100231A46194604F0C2
:1052B0007BFA03220021012004F058F9206520B177
:1052C00000231A46194604F06FFA03220021012038
:1052D00004F04CF9606520B100231A46194604F029
:1052E00063FA03220021012004F040F9A06520B1F7
:1052F00000231A46194604F057FA03220021012020
:1053000004F034F9E06520B100231A46194604F090
:105310004BFA03220021012004F028F9206620B175
:1053200000231A46194604F03FFA03220021012007
:1053300004F01CF9606620B100231A46194604F0F7
:1053400033FA03220021012004F010F9A06620B1F5
:1053500000231A46194604F027FA032200210120EF
:1053600004F004F9E06620B100231A46194604F05F
:105370001BFA03220021012004F0F8F8206720B175
:1053800000231A46194604F00FFA032200210120D7
:1053900004F0ECF8606720B100231A46194604F0C7
:1053A00003FA03220021012004F0E0F8A06720B1F5
:1053B00000231A46194604F0F7F9032200210120C0
:1053C00004F0D4F8E06720B100231A46194604F02F
:1053D000EBF903220021012004F0C8F8286020B175
:1053E00000231A46194604F0DFF9012004F0ACF856
:1053F0006860FCF77FFA142279496846FAF771FF72
:105400000021684602F04EFF764D75491422E86689
:10541000143105A8FAF765FF002105A802F042FF44
:105420006F492867142228310AA8FAF75AFF002189
:105430000AA802F037FF6A49686714223C310FA8B6
:10544000FAF74FFF00210FA802F02CFF6449A8676C
:105450001422503114A8FAF744FF002114A802F0D6
:1054600021FF5F49E8671422643119A8FAF739FF70
:10547000002119A802F016FF594920601422783142
:105480001EA8FAF72EFF00211EA802F00BFF5449B8
:10549000606014228C3123A8FAF723FF002123A88F
:1054A00002F000FF4E49A0601422A03128A8FAF7AC
:1054B00018FF002128A802F0F5FE4949E0601422F7
:1054C000B4312DA8FAF70DFF00212DA802F0EAFE55
:1054D000434920611422C83132A8FAF702FF0021A3
:1054E00032A802F0DFFE3E4960611422DC3137A8A9
:1054F000FAF7F7FE002137A802F0D4FE3849A06180
:105500001422F0313CA8FAF7ECFE00213CA802F08E
:10551000C9FEE0611422344941A8FAF7E2FE0021F5
:1055200041A802F0BFFE304920621422143146A87F
:10553000FAF7D7FE002146A802F0B4FE2A496062BD
:10554000142228314BA8FAF7CCFE00214BA802F018
:10555000A9FE2549A06214223C3150A8FAF7C1FEE9
:10556000002150A802F09EFE1F49E0621422503133
:1055700055A8FAF7B6FE002155A802F093FE1A4985
:105580002063142264315AA8FAF7ABFE00215AA80E
:1055900002F088FE14496063142278315FA8FAF79C
:1055A000A0FE00215FA802F07DFE0F49A063142237
:1055B0008C3164A8FAF795FE002164A802F072FE0F
:1055C0000949E0631422A03169A8FAF78AFE002194
:1055D00069A802F067FE20646FB030BD2002002091
:1055E000489D0108200100204C9E01082DE9F04350
:1055F000354887B0C16C41F00401C164C16C01F051
:1056000004010591C16C41F08001C164C16C01F0DD
:1056100080010591C16C41F00101C164C16C01F0D0
:1056200001010591C16C41F00201C164C06CDFF859
:105630009C8000F0020045F2F00605900022314601
:105640004046FDF718FD4FF4C0574FF09049002237
:1056500039464846FDF70FFD4FF420400024012550
:105660008DE8310069461A48FDF738FC20208DE8A6
:10567000310069464846FDF731FC4FF441708DE832
:10568000310069464046FDF729FC0096CDE90154FA
:10569000694640460394FDF721FC28020090022051
:1056A000CDE901040394694648460494FDF716FCCD
:1056B0000097CDE90154694648460394FDF70EFC76
:1056C00007B0BDE8F083000000100240000400486D
:1056D000000800480C4810B50A49016003214160E8
:1056E00040F6FF71C1604FF400618160FDF7CEFCB0
:1056F000002805D0BDE81040452104A001F020BFDE
:1057000010BD00000030004020F600202E2E2F5348
:1057100072632F697764672E63000000134810B529
:10572000114901604FF48271416000214FF4E06241
:10573000C0E9021202220261012242615202826128
:105740003822C0E9072107224162C0E90A12016339
:105750004163FEF784FB002805D0BDE810405121CD
:1057600003A001F0EDBE10BD00380040C4EF0020E2
:105770002E2E2F5372632F7370692E63000000006A
:1057800010B5174888B04FF0804101604FF4FA51CE
:105790000024C0E90114611EC0E90314FEF7E0FC17
:1057A00018B14A210FA001F0CBFE4FF480500390B6
:1057B00003A90B48FEF746FD18B1502109A001F0DE
:1057C000BFFE0094694606480294FEF7A3FC002839
:1057D00003D0572103A001F0B3FE08B010BD0000B4
:1057E00028F300202E2E2F5372632F74696D2E63C1
:1057F000000000003EB510480E490024C0E9001426
:1058000040F63441C0E90241FEF7AAFC18B1662116
:105810000AA001F095FE20200090694602940648F7
:10582000FEF778FC002803D06D2104A001F088FE6B
:105830003EBD00000010004064F300202E2E2F53C8
:1058400072632F74696D2E63000000003EB510482E
:105850000E490024016041F63F71C0E90114C910EE
:10586000C160FEF77DFC18B17C210AA001F068FE42
:1058700020200090694602940548FEF74BFC002862
:1058800003D0832103A001F05BFE3EBD0014004065
:10589000A0F300202E2E2F5372632F74696D2E6398
:1058A00000000000104810B50E4901604FF49661E9
:1058B0004160002181600C22C160C0E90412816155
:1058C000C16101621021416209028163FEF746FF56
:1058D000002805D0BDE81040592104A001F030BED9
:1058E00010BD00000038014028F000202E2E2F535C
:1058F00072632F75736172742E630000134810B5C4
:105900001149016012490C22002391ED000A002187
:10591000BCEEC00A80ED010A8160C160C0E90412DA
:105920008161C161016210214162090281631A46ED
:105930001946FEF749FA002805D0BDE810406F214E
:1059400004A001F0FDBD10BD0044004098F000200F
:10595000740400202E2E2F5372632F75736172749E
:105960002E630000134810B51149016012490C2242
:10597000002391ED000A0021BCEEC00A80ED010A6F
:105980008160C160C0E904128161C16101621021BE
:105990004162090281631A461946FEF715FA00288A
:1059A00005D0BDE81040852104A001F0C9BD10BD9F
:1059B0000048004008F10020780400202E2E2F53CC
:1059C00072632F75736172742E6300002DED028B6C
:1059D00082B00027ADF80070DFF804919FED418A96
:1059E000DFF80481A9F18006404C4FF0100A4FF017
:1059F000050BA6F1800500235A1E1946D9F86C0044
:105A000003F0D8FD86ED048AD8F80020C2F820A063
:105A1000D8F80000016841F0100101603248FEF73B
:105A2000A3FD698C0BEB410082B230492E48FFF791
:105A30001BF82078E9788842DDD1A078ADF8000025
:105A4000BDF800102948C91C02F064FBBDF8001025
:105A5000BDF800202144C9782244127901EB0221CB
:105A600089B28842C7D16078032801D0042831D197
:105A7000A88C04EB40000179C27801EB0221ADF85B
:105A800004108179407901EB0020ADF80600002177
:105A900001A802F034FB86ED050AE88C04EB400017
:105AA0000179C07801EB0020A885288D04EB400027
:105AB0000179C07801EB0020E885688D04EB400097
:105AC0000179C07801EB002028862079E17800EB8D
:105AD0000120688601206871054807808BE7000077
